:020000040800F2
:100000000000012045250008792400087D2400080F
:1000100081240008852400088924000800000000CD
:100020000000000000000000000000008D24000817
:10003000912400080000000095240008992400087D
:1000400095250008952500089525000895250008A8
:100050009525000895250008952500089525000898
:100060009525000895250008952500089D24000881
:1000700095250008A9240008952500089525000865
:100080009525000895250008B52400089525000849
:100090009525000895250008952500089525000858
:1000A00095250008C124000895250008952500081D
:1000B000CD24000800000000000000009525000885
:1000C000952500080000000000000000D924000869
:1000D000000000009525000895250008000000009C
:1000E000E52400089525000800000000000000003D
:1000F0000000000000000000000000000000000000
:10010000000000000000000000000000952500082D
:10011000000000000000000095250008952500085B
:1001200095250008952500089525000895250008C7
:1001300095250008000000000000000000000000FD
:1001400095250008952500089525000895250008A7
:100150009525000895250008952500089525000897
:100160009525000895250008952500080000000049
:1001700095250008952500080000000000000000FB
:0C0180009525000895250008952500082D
:1001900010B5054C237833B9044B13B10448AFF3C1
:1001A00000800123237010BD6807002000000000BC
:1001B0003483010808B5034B1BB103490348AFF36F
:1001C000008008BD000000006C0700203483010897
:1001D000034613F8012B002AFBD1181A0138704787
:1001E00001F0FF01102A2BDB10F0070F08D010F8E8
:1001F000013B013A8B422DD010F0070F42B3F6D1EC
:10020000F0B441EA012141EA014122F007047FF004
:1002100000070023F0E80256083C85EA010586EA5B
:10022000010685FA47F5A3FA87F586FA47F6A5FA97
:1002300087F68EB9EED1F0BC01F0FF0102F00702A3
:1002400032B110F8013B013A83EA010313B1F8D14E
:100250000020704701387047002D06BF354603382F
:10026000073815F0010F07D1013015F4807F02BF68
:10027000013015F4C03F0130F0BC0138704700BFB9
:1002800081F0004102E000BF83F0004330B54FEA47
:1002900041044FEA430594EA050F08BF90EA020FB4
:1002A0001FBF54EA000C55EA020C7FEA645C7FEA47
:1002B000655C00F0E2804FEA5454D4EB5555B8BF6A
:1002C0006D420CDD2C4480EA020281EA030382EADB
:1002D000000083EA010180EA020281EA0303362D6D
:1002E00088BF30BD11F0004F4FEA01314FF4801C40
:1002F0004CEA113102D0404261EB410113F0004F52
:100300004FEA03334CEA133302D0524263EB430308
:1003100094EA050F00F0A780A4F10104D5F1200EA6
:100320000DDB02FA0EFC22FA05F2801841F1000101
:1003300003FA0EF2801843FA05F359410EE0A5F1D5
:1003400020050EF1200E012A03FA0EFC28BF4CF006
:10035000020C43FA05F3C01851EBE37101F00045BC
:1003600007D54FF0000EDCF1000C7EEB00006EEBC9
:100370000101B1F5801F1BD3B1F5001F0CD3490853
:100380005FEA30004FEA3C0C04F101044FEA4452AA
:1003900012F5800F80F09A80BCF1004F08BF5FEA31
:1003A000500C50F1000041EB045141EA050130BD11
:1003B0005FEA4C0C404141EB0101013C28BFB1F523
:1003C000801FE9D291F0000F04BF01460020B1FA6E
:1003D00081F308BF2033A3F10B03B3F120020CDA41
:1003E0000C3208DD02F1140CC2F10C0201FA0CF01F
:1003F00021FA02F10CE002F11402D8BFC2F1200C84
:1004000001FA02F120FA0CFCDCBF41EA0C01904039
:10041000E41AA2BF01EB0451294330BD6FEA040482
:100420001F3C1CDA0C340EDC04F11404C4F120026D
:1004300020FA04F001FA02F340EA030021FA04F37F
:1004400045EA030130BDC4F10C04C4F1200220FAD6
:1004500002F001FA04F340EA0300294630BD21FA14
:1004600004F0294630BD94F0000F83F4801306BFDA
:1004700081F480110134013D4EE77FEA645C18BFCE
:100480007FEA655C29D094EA050F08BF90EA020F65
:1004900005D054EA000C04BF1946104630BD91EA5D
:1004A000030F1EBF0021002030BD5FEA545C05D160
:1004B0004000494128BF41F0004130BD14F580049F
:1004C0003CBF01F5801130BD01F0004545F0FE4113
:1004D00041F470014FF0000030BD7FEA645C1ABF48
:1004E000194610467FEA655C1CBF0B46024650EA7F
:1004F000013406BF52EA033591EA030F41F40021AB
:1005000030BD00BF90F0000F04BF0021704730B530
:100510004FF4806404F132044FF000054FF0000105
:1005200050E700BF90F0000F04BF0021704730B5C6
:100530004FF4806404F1320410F0004548BF40429B
:100540004FF000013EE700BF42004FEAE2014FEAF0
:1005500031014FEA02701FBF12F07F4393F07F4FCB
:1005600081F06051704732F07F4208BF704793F0CE
:100570007F4F04BF41F40021704730B54FF46074E1
:1005800001F0004521F000411CE700BF50EA0102E4
:1005900008BF704730B54FF000050AE050EA01028D
:1005A00008BF704730B511F0004502D5404261EBFD
:1005B00041014FF4806404F132045FEA915C3FF43E
:1005C000D8AE4FF003025FEADC0C18BF03325FEADB
:1005D000DC0C18BF033202EBDC02C2F1200300FA8C
:1005E00003FC20FA02F001FA03FE40EA0E0021FAB1
:1005F00002F11444BDE600BF70B54FF0FF0C4CF49F
:10060000E06C1CEA11541DBF1CEA135594EA0C0F50
:1006100095EA0C0F00F0DEF82C4481EA030621EA8B
:100620004C5123EA4C5350EA013518BF52EA0335C6
:1006300041F4801143F4801338D0A0FB02CE4FF078
:100640000005E1FB02E506F00042E0FB03E54FF0A8
:100650000006E1FB03569CF0000F18BF4EF0010EA0
:10066000A4F1FF04B6F5007F64F5407404D25FEA9C
:100670004E0E6D4146EB060642EAC62141EA55514F
:100680004FEAC52040EA5E504FEACE2EB4F1FD0C91
:1006900088BFBCF5E06F1ED8BEF1004F08BF5FEA0F
:1006A000500E50F1000041EB045170BD06F00046C1
:1006B00046EA010140EA020081EA0301B4EB5C046E
:1006C000C2BFD4EB0C0541EA045170BD41F4801166
:1006D0004FF0000E013C00F3AB8014F1360FDEBF8B
:1006E000002001F0004170BDC4F10004203C35DA67
:1006F0000C341BDC04F11404C4F1200500FA05F3EA
:1007000020FA04F001FA05F240EA020001F000428A
:1007100021F0004110EBD37021FA04F642EB060100
:100720005EEA430E08BF20EAD37070BDC4F10C042A
:10073000C4F1200500FA04F320FA05F001FA04F2EE
:1007400040EA020001F0004110EBD37041F10001DA
:100750005EEA430E08BF20EAD37070BDC4F12005E5
:1007600000FA05F24EEA020E20FA04F301FA05F24D
:1007700043EA020321FA04F001F0004121FA04F2F5
:1007800020EA020000EBD3705EEA430E08BF20EAC5
:10079000D37070BD94F0000F0FD101F000464000FF
:1007A00041EB010111F4801F08BF013CF7D041EA81
:1007B000060195F0000F18BF704703F00046520085
:1007C00043EB030313F4801F08BF013DF7D043EA56
:1007D0000603704794EA0C0F0CEA135518BF95EA0C
:1007E0000C0F0CD050EA410618BF52EA4306D1D193
:1007F00081EA030101F000414FF0000070BD50EAB2
:10080000410606BF1046194652EA430619D094EA3B
:100810000C0F02D150EA013613D195EA0C0F05D125
:1008200052EA03361CBF104619460AD181EA030179
:1008300001F0004141F0FE4141F470014FF0000031
:1008400070BD41F0FE4141F4780170BD70B54FF0CC
:10085000FF0C4CF4E06C1CEA11541DBF1CEA13554C
:1008600094EA0C0F95EA0C0F00F0A7F8A4EB05042E
:1008700081EA030E52EA03354FEA013100F0888025
:100880004FEA03334FF0805545EA131343EA1263EE
:100890004FEA022245EA111545EA10654FEA0026A3
:1008A0000EF000419D4208BF964244F1FD0404F55C
:1008B000407402D25B084FEA3202B61A65EB0305B8
:1008C0005B084FEA32024FF480104FF4002CB6EB75
:1008D000020E75EB030E22BFB61A754640EA0C00F5
:1008E0005B084FEA3202B6EB020E75EB030E22BF35
:1008F000B61A754640EA5C005B084FEA3202B6EB76
:10090000020E75EB030E22BFB61A754640EA9C0034
:100910005B084FEA3202B6EB020E75EB030E22BF04
:10092000B61A754640EADC0055EA060E18D04FEAC2
:10093000051545EA16754FEA06164FEAC30343EA62
:1009400052734FEAC2025FEA1C1CC0D111F4801F2F
:100950000BD141EA00014FF000004FF0004CB6E728
:1009600011F4801F04BF01430020B4F1FD0C88BFC7
:10097000BCF5E06F3FF6AFAEB5EB030C04BFB6EBD2
:10098000020C5FEA500C50F1000041EB045170BDC5
:100990000EF0004E4EEA113114EB5C04C2BFD4EBF2
:1009A0000C0541EA045170BD41F480114FF0000E76
:1009B000013C90E645EA060E8DE60CEA135594EAF2
:1009C0000C0F08BF95EA0C0F3FF43BAF94EA0C0FF5
:1009D0000AD150EA01347FF434AF95EA0C0F7FF46A
:1009E00025AF104619462CE795EA0C0F06D152EABE
:1009F00003353FF4FDAE1046194622E750EA4106A2
:100A000018BF52EA43067FF4C5AE50EA41047FF4B2
:100A10000DAF52EA43057FF4EBAE12E74FF0FF3C17
:100A200006E000BF4FF0010C02E000BF4FF0010CE8
:100A30004DF804CD4FEA410C7FEA6C5C4FEA430C61
:100A400018BF7FEA6C5C1BD001B050EA410C0CBFB0
:100A500052EA430C91EA030F02BF90EA020F002012
:100A6000704710F1000F91EA030F58BF994208BF79
:100A700090422CBFD8176FEAE37040F00100704736
:100A80004FEA410C7FEA6C5C02D150EA013C07D18D
:100A90004FEA430C7FEA6C5CD6D152EA033CD3D0D8
:100AA0005DF8040B704700BF8446104662468C46D2
:100AB0001946634600E000BF01B5FFF7B7FF002805
:100AC00048BF10F1000F01BD4DF808EDFFF7F4FF2E
:100AD0000CBF012000205DF808FB00BF4DF808EDB9
:100AE000FFF7EAFF34BF012000205DF808FB00BFDC
:100AF0004DF808EDFFF7E0FF94BF012000205DF8FE
:100B000008FB00BF4DF808EDFFF7CEFF94BF0120B2
:100B100000205DF808FB00BF4DF808EDFFF7C4FFAB
:100B200034BF012000205DF808FB00BF4FEA410CF4
:100B30007FEA6C5C02D150EA013C0AD14FEA430CD7
:100B40007FEA6C5C02D152EA033C02D14FF0000014
:100B500070474FF0010070474FEA410212F5001252
:100B600015D211D56FF47873B3EB625212D94FEAF4
:100B7000C12343F0004343EA505311F0004F23FADE
:100B800002F018BF404270474FF00000704750EA33
:100B9000013005D111F0004008BF6FF000407047F0
:100BA0004FF00000704700BF4A0011D212F500124A
:100BB00011D20DD56FF47873B3EB62520ED44FEAB5
:100BC000C12343F0004343EA505323FA02F0704735
:100BD0004FF00000704750EA013002D14FF0FF3073
:100BE00070474FF0000070474FEA4102B2F1E04316
:100BF00024BFB3F5001CDCF1FE5C0DD901F0004C04
:100C00004FEAC0024CEA5070B2F1004F40EB830053
:100C100008BF20F00100704711F0804F21D113F17F
:100C20003872BCBF01F00040704741F480114FEAB8
:100C30005252C2F11802C2F1200C10FA0CF320FA41
:100C400002F018BF40F001004FEAC1234FEAD3235E
:100C500003FA0CFC40EA0C0023FA02F34FEA4303C8
:100C6000CCE77FEA625307D150EA01331EBF4FF051
:100C7000FE4040F44000704701F0004040F0FE406C
:100C800040F40000704700BF53B94AB9002908BFBB
:100C900000281CBF4FF0FF314FF0FF3000F074B957
:100CA000ADF1080C6DE904CE00F006F8DDF804E0C3
:100CB000DDE9022304B070472DE9F047089D0446A2
:100CC0008E46002B4DD18A42944669D9B2FA82F2FF
:100CD00052B101FA02F3C2F1200120FA01F10CFA3B
:100CE00002FC41EA030E94404FEA1C48210CBEFB73
:100CF000F8F61FFA8CF708FB16E341EA034306FBFC
:100D000007F199420AD91CEB030306F1FF3080F08A
:100D10001F81994240F21C81023E63445B1AA4B2D7
:100D2000B3FBF8F008FB103344EA034400FB07F779
:100D3000A7420AD91CEB040400F1FF3380F00A81BA
:100D4000A74240F207816444023840EA0640E41BAF
:100D500000261DB1D4400023C5E900433146BDE85B
:100D6000F0878B4209D9002D00F0EF800026C5E9FD
:100D7000000130463146BDE8F087B3FA83F6002E15
:100D80004AD18B4202D3824200F2F980841A61EB8D
:100D9000030301209E46002DE0D0C5E9004EDDE7AB
:100DA00002B9FFDEB2FA82F2002A40F09280A1EB93
:100DB0000C014FEA1C471FFA8CFE0126200CB1FBE8
:100DC000F7F307FB131140EA01410EFB03F08842E1
:100DD00008D91CEB010103F1FF3802D2884200F26E
:100DE000CB804346091AA4B2B1FBF7F007FB101100
:100DF00044EA01440EFB00FEA64508D91CEB04049E
:100E000000F1FF3102D2A64500F2BB800846A4EBF8
:100E10000E0440EA03409CE7C6F12007B34022FAE3
:100E200007FC4CEA030C20FA07F401FA06F31C4312
:100E3000F9404FEA1C4900FA06F3B1FBF9F8200C1F
:100E40001FFA8CFE09FB181140EA014108FB0EF065
:100E5000884202FA06F20BD91CEB010108F1FF3AB5
:100E600080F08880884240F28580A8F102086144C1
:100E7000091AA4B2B1FBF9F009FB101144EA0141CF
:100E800000FB0EFE8E4508D91CEB010100F1FF347A
:100E90006CD28E456AD90238614440EA0840A0FB12
:100EA0000294A1EB0E01A142C846A64656D353D0E8
:100EB0005DB1B3EB080261EB0E0101FA07F722FA0C
:100EC00006F3F1401F43C5E9007100263146BDE835
:100ED000F087C2F12003D8400CFA02FC21FA03F398
:100EE000914001434FEA1C471FFA8CFEB3FBF7F019
:100EF00007FB10360B0C43EA064300FB0EF69E423E
:100F000004FA02F408D91CEB030300F1FF382FD2D6
:100F10009E422DD9023863449B1B89B2B3FBF7F67E
:100F200007FB163341EA034106FB0EF38B4208D957
:100F30001CEB010106F1FF3816D28B4214D9023E98
:100F40006144C91A46EA004638E72E46284605E7B6
:100F50000646E3E61846F8E64B45A9D2B9EB020887
:100F600064EB0C0E0138A3E74646EAE7204694E717
:100F70004046D1E7D0467BE7023B614432E730464A
:100F800009E76444023842E7704700BF08B50846E5
:100F9000114613F0B1FFBDE80840014813F096BEBA
:100FA00000840108000000004368002B40F0DC8052
:100FB0002DE9F04F03682DED088B23F00043022B41
:100FC00083B000F064810B2B00F00781012BC64C2D
:100FD00000F0148194ED00AAC44D1AEE100AFFF738
:100FE000B3FAD4ED019A02460B4619EE900ACDE908
:100FF0000023FFF7A9FA94ED028A804618EE100A42
:101000008946FFF7A1FA94ED039AB94C824619EE8E
:10101000100A8B46FFF798FADDE9002341EC1B0B21
:1010200010461946FFF7E8FA424606460F464B4679
:1010300040464946FFF7E0FA02460B46304639463D
:10104000FFF724F9524606460F465B46504659467E
:10105000FFF7D2FA02460B4630463946FFF714F93D
:1010600053EC1B2B06460F461BEE100A1946FFF7E2
:10107000C3FA69EE888A02460B4630463946EAEEE4
:10108000098AFFF701F9FFF7AFFDFFF75DFA78EE88
:10109000A87A804617EE900A8946FFF755FA42462D
:1010A00082468B464B4640464946FFF7A5FA5246D4
:1010B00006460F465B4650465946FFF79DFA28EE16
:1010C0004A8A02460B4630463946FFF7DFF8A9EE5A
:1010D000898A884E41EC100B16F08EF878EE087A6B
:1010E0008DED000B17EE900AFFF72EFA9DED000B29
:1010F00041EC110B16F07EF851EC100BFFF774FD6C
:1011000049EC118B4BEC10AB306016F073F851ECDE
:10111000100BFFF769FD784B784A1860D6ED007A1E
:1011200092ED007A764A77EEC77AC4ED007AD3ED75
:10113000007A92ED007A77EEC77AC5ED007AD4EDA9
:10114000007AF5EEC07AF1EE10FA0ED92068FFF7BA
:10115000FBF95DA3D3E90023FFF7D4FC002863D09B
:10116000684E0023336004E07047664E40F67463B7
:1011700033602868FFF7E8F955A3D3E90023FFF7A8
:10118000B7FC002843D000237360D4ED007A9FEDB4
:101190005E8A5E4C67EE887A17EE900AFFF7D4F904
:1011A0004DA3D3E90023FFF727FAFFF71DFD2060C9
:1011B000D5ED007A67EE887A17EE900AFFF7C4F94A
:1011C00045A3D3E90023FFF717FAFFF70DFD606091
:1011D00003B0BDEC088BBDE8F08FD0ED087A424C2F
:1011E000436902696360FCEEE77AC3692260E360E9
:1011F000474A8169A16017EE903A137090F8283041
:10120000444A032B13704AD0434A1370E2E628681D
:10121000FFF79AF92CA3D3E90023FFF773FCE0B1A1
:1012200040F674637360B0E72068364EFFF78CF9C0
:1012300002460B4624A1D1E90001FFF725F828A3B7
:10124000D3E90023FFF7D8F923A3D3E90023FFF75D
:10125000D3F9FFF7A9FC30608BE72868FFF774F932
:1012600019A3D3E90023FFF711F82C4B0022FFF755
:10127000C3F919A3D3E90023FFF7BEF918A3D3E9F3
:101280000023FFF7B9F9FFF78FFC70607DE790F856
:101290002830214A032B13700FD0134C9AE6204AB2
:1012A0000669456981691660556091601A4A137034
:1012B0001C4B1E605D6099608CE60669456981691A
:1012C000094CF5E7AFF30080182D4454FB21094089
:1012D000182D4454FB2109C083C8C96D305FD43F29
:1012E0000000000000E8AC4090C8002088C8002042
:1012F000A8C80020A4C8002084C80020ACC80020D2
:101300008CC800209C07002000003443A407002064
:101310009607002094070020950700200000E03F7A
:101320008407002088C7002008B503494FF0FF322A
:10133000032011F025F9FEE7048401080A4A5368E6
:101340004BB1DB6A23B1014610684CF250321847AA
:101350006FF00100704710B5044B054A054840F294
:101360007F1112F0CDFD00BFA0C100201084010844
:101370003086010820840108094A536843B19B6AFA
:101380001BB101461068012218476FF00100704739
:1013900010B5044B044A054840F2511112F0B0FD5B
:1013A000A0C10020108401081886010820840108CB
:1013B00000B599B04422002106A812F036FE0023A1
:1013C0004FF40070CDE90033CDE90233049303F00C
:1013D00051FB08B172B6FEE79FED177B8DED107BD8
:1013E0009FED177B8DED127B9FED177B02234FF452
:1013F0008071102206A8069316938DED147B099137
:101400000A9203F019FC034608B172B6FEE79FED9D
:10141000107B8DED007B9FED107B042168468DEDE8
:10142000027B049303F01AFF08B172B6FEE719B00D
:101430005DF804FBAFF30080020000000200000032
:10144000010000000A000000070000000200000088
:101450000F0000000300000000000000000000007A
:101460002DE9F04F2DED028BADF5337D0024ADF865
:101470007040ADF87240ADF87440ADF8764001F0C0
:10148000B1F8FFF795FFCDE92644CDE92844B84DE2
:101490002A94EB6CDFF8089343F00403EB64EB6CE5
:1014A00003F004031F931F9BEB6C43F00103EB64F9
:1014B000EB6C03F001032093209BEB6C43F00203E1
:1014C000EB64EB6C03F00203219340F281114FF0C7
:1014D00090402246219B02F075FAA64822464321FD
:1014E00002F070FA4FF480424FF48813A248289417
:1014F00026A9CDE9262302F089F94FF40042002302
:101500009D48289426A9CDE92623012602F07EF9DC
:1015100003278122012326A94FF09040CDE92867B7
:10152000CDE9262302F072F941220123914826A930
:10153000CDE92867CDE9262302F068F902220123CC
:10154000CDE926238B480022032326A9CDE92823B1
:10155000002602F05BF900274FF48072012326A9D0
:101560004FF09040CDE92623CDE9286702F04EF9EF
:10157000002380227F48289426A9CDE9262302F063
:1015800045F922462146282001F09EFE282001F040
:10159000D9FE7A484FF4E133C0E900930C23C0E947
:1015A0000244C0E90644C0E908440461436105F00F
:1015B0001BFC08B172B6FEE7714CDFF8E8812061D0
:1015C0004FF44033C4E900830823CDE92600CDE978
:1015D0002800CDE92A00C4E90200208384F8200015
:1015E00084F8300084F8380063614FF001084FF44C
:1015F0008053C4E90A672046C4F81C80636301F085
:1016000025F808B172B6FEE75E4A0623CDE9262327
:1016100007227F23CDE9282320460422002326A980
:10162000CDE92A2301F040FA08B172B6FEE7564C24
:10163000DFF874E1554B2062C4E90208C4E90400F4
:10164000C4E906002046C4E900E302F08BFC014631
:1016500008B172B6FEE7204603F0AEF9014608B1C4
:1016600072B6FEE7204603F0D1F9044608B172B61F
:10167000FEE7AB6C43F00103AB64AB6C444D03F08D
:101680000103024601461E930B201E9B01F01CFE27
:101690000B2001F057FE224621460D2001F014FEDA
:1016A0000D2001F04FFEDFF804C128944F23C5E957
:1016B00000C328464FF6FF73EB60CDE92644AC60CB
:1016C000AC6104F091FD034608B172B6FEE726A9AD
:1016D00028462693289304F0D9FF014608B172B634
:1016E000FEE72C4C242226A812F09FFC2A4B2360F4
:1016F000204601F04FFE024608B172B6FEE72046D2
:1017000026A9CDE92667CDE928672A9201F09EFE39
:1017100008B172B6FEE71F48102226A901F096FE16
:1017200008B172B6FEE71D4C25904F234FF080465E
:10173000CDE92600CDE92800CDE92300C4E9006306
:10174000A0602061A06140F2E7332046E36004F02E
:101750004BFD08B172B6FEE74FF4805326A9204630
:10176000269304F023FE034610B372B6FEE700BFD3
:10177000001002400004004800080048B80C002097
:10178000180A002001000080200B00209129700021
:101790006C0C00207C0A002000740040200C00200B
:1017A000004400400000045000540040001000407D
:1017B000204623A92393259304F068FF034608B12C
:1017C00072B6FEE719481A498360C0E90433C0E9DC
:1017D0000833836203630823C36143634FF4827356
:1017E000C0E900134FF4E063C3604FF400738361FA
:1017F0000723C36204F0E6F8044608B172B6FEE7B8
:1018000005F05AFB0B480C4A846049F63F43C0E997
:10181000002340F2CF73C0E904448461C36004F044
:10182000E3FC044650B172B6FEE700BF700B002027
:1018300000300140D40B002000440140BB4DBC48A7
:1018400000F09EFBC5E90044C5E902442C6110F09C
:101850001FFF11F0A9FC10F023FF4FF47A7000F085
:10186000E3FEB44926A8012207F09CFA002840F0C4
:101870001A82DFF86483012388F80030AE48AF4C49
:1018800013F024FAAE49062010F066FEAD4813F0BE
:101890001DFA002320888DF88C3023A912F0D8F887
:1018A0000646022000F0C0FE002E40F08382A648CB
:1018B00013F00CFA208811F0B9FE002840F07A826B
:1018C000A24813F003FAA24B2088198889B211F0BC
:1018D000FDFF3221208811F037FF3221208812F0DD
:1018E0008FF806222088114612F03AF999489A4E4C
:1018F00013F0ECF9208811F0FBFE984813F0E6F99C
:10190000974813F0E3F94FF00209FA23CDE9229347
:1019100011F042FD43F2D2730146924A00933046E1
:10192000914B09F011FB0027304609F08BFA22ABEE
:10193000009705220121304609F00AF9013000F034
:101940001582009723AB05220421304609F000F9E7
:10195000013000F00B82012106F130000FF078F920
:101960000120FFF7EBFC013000F000824846FFF752
:10197000E5FC013000F0FA811420FFF7DFFC0130B4
:1019800000F0F4810120FFF7F7FC013000F0EE8158
:101990004846FFF7F1FC013000F0E8811420FFF722
:1019A000EBFC013000F0E281704804F095FC7048D7
:1019B00004F0CEFC6F4804F0CBFC39466E4801F0D1
:1019C000FFFC10216C4801F0FBFC6C496C480122C3
:1019D00001F088FB6B4B1A78002AFCD0684801F0B4
:1019E0000FFC694813F072F998F80030002B3CD0D6
:1019F000664FDFF8E8B1DFF8E891DFF8E8A1384694
:101A000011F0CEFC62493B88624AABF800307B683B
:101A10000B60BB6813603B7B89F800303B8AAAF8F7
:101A20000030208811F068FEBBF90010208812F009
:101A300061F8BAF80010208812F074F8208811F0CC
:101A400057FE55495548012207F0FEF954495548BB
:101A5000012207F0F9F999F8000011F0DDF8524978
:101A60004E4808F071FA11F0E5FC5048504F08F06C
:101A700027FB504B504A1B78127800924F4A12783D
:101A800001920022C7E90022BA600C214C4A384674
:101A900013F0EAF911F09CFB002840F06981434BF8
:101AA000D3F8E4309847474B1B7803F0FF09002B2D
:101AB00040F0DC804449208811F022FE424B1B7824
:101AC000012B00F002817368002B00F0F8805B6945
:101AD00023B130689847013000F048813B4BDFF874
:101AE0000891D3F800A03A4BD9F80800D3F800B019
:101AF000384B1B681B93FEF727FDCDE91801D9F879
:101B00000400FEF721FDCDE91601D9F80000DFF849
:101B1000DC90FEF719FDCDE91401D9F80800FEF7B5
:101B200013FDCDE91201D9F8040061E0F4090020A9
:101B3000B80C0020E0C001088C84010818000020C7
:101B40008D0F0008A0840108BC840108E48401080A
:101B500014000020F8840108A0C100200C850108B1
:101B60002085010824BE0108508601086C0C002065
:101B7000200C0020D40B00207C0A002098070020B5
:101B8000180A0020F009002038850108DC0900202F
:101B9000ACC800208CC8002054850108AC07002088
:101BA0005C850108B0C800203C0D002098C70020CB
:101BB000E0CA00206C0B002080C80020A2C80020D2
:101BC0006485010897070020080A002084C80020C7
:101BD000A4C80020100A0020A1C800200A0A002082
:101BE00017000020140A002088C700208407002066
:101BF000FEF7AAFCCDE91001D9F80000DFF85492F5
:101C0000FEF7A2FCCDE90E01D9F80C00FEF79CFC12
:101C1000CDE90C01D9F80800FEF796FCCDE90A01E0
:101C2000D9F80400FEF790FCCDE90801D9F80000CE
:101C3000FEF78AFC1B9BCDE906011846FEF784FCE3
:101C4000CDE904015846FEF77FFCCDE9020150467C
:101C5000FEF77AFC684ACDE900016848AA2113F032
:101C600003F9674B1B78002B40F09F8098F80030F9
:101C7000002B3FF4FEAE634B1B78002B3FF4F9AE14
:101C8000B4220021604812F0D0F939460C225E4897
:101C900013F01EF959495C48AA2213F019F95A4861
:101CA00011F036FCE5E65948DFF8AC8113F00EF888
:101CB000574B88F80040187810F0AEFFDEE5554B22
:101CC000554A5648C92112F01BF9DFF890A1544B30
:101CD000208883F80090514611F0CAFE51492088AF
:101CE00011F0F0FE5049BAF800A01222881E12F03E
:101CF00082F9A5F812A04D4DDFED4D7A4B462A46EC
:101D000032F8021B07EE101A0133B8EE477A0A2B9D
:101D100077EE877AF4D1B2EE047ABAF5167F87EEC1
:101D2000878A5DD2DFF83891B9F800309BB2022B78
:101D300046D0404BDFED406A9FED407AC8EE267AF0
:101D4000B4EEC78AF1EE10FAC3ED007A36DADFEDB1
:101D50003C7A28EE278AC8EE076A77EEE67AFCEE30
:101D6000E77A17EE903A374A1360ACE6FFF7DCFAF1
:101D70000DF172011CA811F037FA254B01901B7868
:101D8000BDF87210BDF8700000931DAA0DF1760326
:101D900008F00EF9BDF87610BDF8740008F01EF9D1
:101DA0000146294808F014FA79E61449274812F048
:101DB00007FF5BE7264812F089FF97E50023D2E78B
:101DC00020880123A9F8003011F096FCB9F8001022
:101DD000208889B211F07AFD208811F089FCA8E7EB
:101DE000A7D0DFF87C90B9F800309BB2012BA0D1CE
:101DF00020880223E6E700BF78850108ECCA0020AE
:101E000016000020D0C60020D4C60020748401082B
:101E100017000020108401080886010820840108AA
:101E2000080A0020A0C80020F6090020F4090020BC
:101E300000000000100A002000007A4400401C4509
:101E4000004067450C0A002098C70020048601085E
:101E5000CC84010890C80020A1C80020F20900200D
:101E6000140000200000000038B5114B1B681888D2
:101E700080B2FEF757FB0CA3D3E90023FEF7BCFBAF
:101E80000C4B044618680D46FEF73CFB02460B4619
:101E900020462946FEF7DAFCFEF7A6FE0649074B68
:101EA000086001221A7038BD6666666666660A407A
:101EB0001C0000209807002098CB0020F00900208B
:101EC0000368B3F1804F16D0224A934200D0704786
:101ED000214A13780133DBB23C2B13701F4B11D016
:101EE0001A783C2AF3D11E4A002119701378013365
:101EF000DBB21370704770B51A4B1B7803F0FF0408
:101F00003BB170BD002111701A780132D2B21A7043
:101F1000E6E7154D2B78DB4303F001034FF48071A6
:101F20004FF090402B7001F053FD2B780F49104873
:101F3000C3F10103224651F82330102101F06EFA5B
:101F40000C4B0B481B6822462146BDE8704001F04F
:101F500065BA00BF00440140A2C8002080C800202C
:101F60006C0B002097070020F10900209C0700203F
:101F70007C0A00200C0A0020704700BF72B6FEE702
:101F800030B4064B06491D68044600230C60A8685F
:101F9000022230BC194612F0A1BE00BF94050020F9
:101FA0009CCB0020022801D80120704708B511F011
:101FB000C5FF09230360002008BD00BF01380128C8
:101FC00010B50CD8094B1446186892B24FF0FF3385
:101FD00004F04CFE002818BF0524204610BD11F067
:101FE000ADFF092303604FF0FF34F6E79CCB0020E0
:101FF000022801D80020704708B511F09FFF09237F
:1020000003604FF0FF3008BD08B511F097FF0923BA
:1020100003604FF0FF3008BD08B558B9094A4FF0CA
:10202000FF331068012204F06FFB00280CBF012071
:10203000052008BD11F082FF092303604FF0FF3037
:1020400008BD00BF9CCB0020022808B504D84FF47F
:1020500000534B60002008BD11F070FF092303609E
:10206000002008BD0A4B1A6E42F001021A661A6E71
:1020700082B002F001020092009A9A6D42F0805202
:102080009A659B6D03F080530193019B02B07047EA
:10209000001002400000000030B5044699B0542200
:1020A000002102A811F0C1FF2F4B22689A4201D0F3
:1020B00019B030BD9FED247B8DED027B9FED247B1D
:1020C0008DED047B9FED247B8DED067B9FED247BC6
:1020D0004FF0805302A88DED087B149303F00CFAA7
:1020E00058BB224A224DD16C41F40051D164D26CCC
:1020F0002049296002F40052019200238021019AB4
:102100002B624FF40072C5E903316A614FF400613C
:1021100020222846C5E90133C5E9061201F024FA58
:1021200070B9002211461220E564AC6201F0CCF8CF
:10213000122001F007F919B030BDFFF71FFFD0E7FB
:10214000FFF71CFFEDE700BF0040000002000000A9
:10215000010000000800000007000000020000006D
:1021600002000000000000010000045000100240C6
:10217000900A00200800024000B51B4A016889B09F
:1021800000239142CDE90233CDE90433069302D016
:1021900009B05DF804FB03F1804303F504339FEDC0
:1021A000107B9A6D42F000529A659A6D02F00052CF
:1021B0000092009ADA6C42F00102DA64DB6C03F000
:1021C0000103019302A94FF090408DED027B019B2A
:1021D00001F01CFB09B05DF804FB00BFAFF3008009
:1021E0003000000003000000007400400000000008
:1021F00010B504469CB00021542207A8CDE9021175
:10220000CDE90411069111F010FF1B4B22689A4290
:1022100001D01CB010BD402307A8079303F06CF950
:1022200018BB164CE36C43F00103E364E36C9FEDD1
:10223000107B03F0010300930423009A069300220D
:10224000032302A94FF09040CDE904238DED027BDA
:1022500001F0DCFAA36D43F40013A365A36D03F44E
:1022600000130193019B1CB010BDFFF787FED8E758
:102270000006000012000000005400400010024060
:1022800070B5284B026888B000249A42CDE9024418
:10229000CDE90444069401D008B070BD03F5604355
:1022A00005461A6E2048214E42F480521A661A6E74
:1022B00002F480520092009ADA6C42F00202DA6470
:1022C000DB6C03F00203019338220223CDE90223E1
:1022D00001220323CDE9042302A905230693019BD0
:1022E00001F094FA124A0123C6E900233046102275
:1022F0008023C6E90224C6E90544C6E907443361E0
:1023000001F032F958B90022114623206E65B562FA
:1023100000F0DAFF232001F015F808B070BDFFF7D8
:102320002DFEF0E70030014000040048D80A0020EC
:102330003000024000B50368B3F1804F85B02AD069
:10234000204A934205D0204A93420FD005B05DF851
:1023500004FB1E4B9A6D42F010029A659B6D03F0D0
:1023600010030293029B05B05DF804FB174B196E36
:1023700041F4003119661B6E002203F4003303930D
:1023800019201146039B00F09FFF192005B05DF84E
:1023900004EB00F0D7BF03F504330022996D41F040
:1023A000010199659B6D03F0010301931C20114607
:1023B000019B00F089FF1C2005B05DF804EB00F0E4
:1023C000C1BF00BF001000400044014000100240A7
:1023D00030B504469DB00021542207A8CDE9021172
:1023E000CDE90411069111F020FE214B22689A429A
:1023F00001D01DB030BD022307A8079303F07CF87D
:10240000002831D11B4B9A6D42F400329A659A6DC7
:1024100002F400320092009ADA6C42F00102DA64AF
:10242000DB6C0420022103F00103CDE902010193DA
:102430000024032502A94FF0904007230693CDE91D
:102440000445019B01F0E2F94FF400420223CDE97B
:10245000022302A903234FF09040CDE904450693DF
:1024600001F0D4F91DB030BDFFF788FDCAE700BF09
:102470000044004000100240FEE700BFFEE700BF3E
:10248000FEE700BFFEE700BFFEE700BF704700BFEA
:10249000704700BF704700BF00F0B4B8014801F0BA
:1024A00067B900BF900A0020014801F061B900BF80
:1024B000D80A0020014800F0B3B900BF180A002074
:1024C000014804F02BB800BFD40B0020014804F0F1
:1024D00025B800BF200C0020014803F0DFBD00BF7D
:1024E000700B00204FF4804001F07CBA10B50C4C0A
:1024F0000C4B0D492268591A2AB11044884207D85A
:102500002060104610BD094A226010448842F7D965
:1025100011F014FD0C234FF0FF320360104610BD84
:10252000A0CB0020000001200004000018D20020F1
:10253000034AD2F8883043F47003C2F888307047F9
:1025400000ED00E0DFF834D0FFF7F2FF0C480D4952
:102550000D4A002302E0D458C4500433C4188C42FE
:10256000F9D30A4A0A4C002301E013600432A24264
:10257000FBD311F0FBFCFEF773FFFEE70000012028
:102580000000002064070020B8F10108680700205F
:1025900014D20020FEE7000038B50F4B1B780BB9B2
:1025A000012038BD0D494FF47A720546B2FBF3F3B2
:1025B0000868B0FBF3F000F0D3FE04460028EFD12A
:1025C0000F2DEDD8024629464FF0FF3000F07CFE7B
:1025D000034B20461D6038BD240000202000002051
:1025E0002800002010B5032000F05CFE0020FFF75B
:1025F000D3FF10B10124204610BD0446FFF732FD81
:10260000204610BD034A044B11681B780B4413602D
:10261000704700BFA4CB002024000020014B1868A5
:10262000704700BFA4CB002038B50446FFF7F6FF83
:10263000631C054602D0044B1B781C44FFF7EEFFD9
:10264000431BA342FAD338BD2400002030B583B029
:1026500000230193002800F0B180456D0446002D51
:1026600000F08880226893689B0005D5936823F06A
:10267000204323F03F0393609368DD0019D45D4B42
:102680005D481B6891689B09A0FB030321F0104182
:102690009B0921F03F0101335B0041F080519160C3
:1026A0000193019B2BB1019B013B0193019B002BEB
:1026B000F9D19368D8004FD4636D43F0100363657C
:1026C000A36D01200343A365936813F0040F636DAA
:1026D00049D1D90647D4636D23F4817343F00203D3
:1026E00063659368DB070AD4444B9B68DD0706D417
:1026F000434965688B6823F47C132B438B60E56842
:10270000636B94F820102B43A5682B43657E012949
:1027100043EA453343EA01434BD0A16A21B1E56A5C
:1027200001F4707129430B43D568364929400B43A6
:10273000D3609368590723D593682369012B40D050
:10274000136B23F00F031363636D23F0030343F054
:102750000103636503B030BD936813F0040F4FF0BD
:102760000000636DB5D0636D012043F01003636515
:1027700003B030BDFFF790FCA56584F8505071E7B9
:1027800093681B07D9D4D16894F83030257E21F4A2
:1027900080415B0021F0020143EA85330B43D360A3
:1027A00094F83830012B14D0136923F0010313611E
:1027B000C3E7616A013943EA4143AEE7012003B050
:1027C00030BD116BE36921F00F01013B0B43136333
:1027D000BAE71169E36B256C21F4FF6121F0040174
:1027E0002B430B43616C0B43A16C0B4343F0010380
:1027F0001361A2E720000020632D3E050000045075
:102800000003045007C0F0FF704700BF08B5806A9E
:10281000FFF7FAFF08BD00BF704700BF704700BF59
:10282000036870B51D685E68A907044601D5B20744
:102830007DD469075BD5720759D5626DD20603D482
:10284000626D42F400726265DA6812F4406F18D16A
:10285000DA68900415D41A68110712D59A685207DD
:1028600000F1C9805A6822F00C025A60636D23F4AB
:1028700080736365636DD80403D4636D43F0010313
:1028800063652046FFF7F0FA23680C221A60A90658
:1028900033D5B20631D5626DD20603D4626D42F4EF
:1028A00000526265DA6C12F0C00F62D1DA6812F47D
:1028B000406F00F09A80DA6891015CD4196848068C
:1028C00059D5910257D49A68120700F19D805A6831
:1028D00022F060025A60636D23F480536365636D78
:1028E000DB0548D4636D43F00103636543E02807CB
:1028F000CDD53107A1D4A906CBD4680614D42806B7
:1029000001D531064AD4EA0501D5F00551D4A9050F
:1029100001D5B20536D4E80601D5F10615D46D050A
:1029200001D5700551D470BD7106E8D5B3E7436D8C
:10293000D80603D4636D43F400636365204600F05A
:10294000AFFC236802221A6073E7626B12B1DA6887
:10295000D2070BD5636D43F480636365A36D43F0C9
:102960000203A3652046FFF759FF236810221A606F
:10297000D5E7DA68DB68204600F08AFC236860222D
:102980001A60BCE7636D43F480236365204600F062
:1029900085FC23684FF400721A60BCE7636D43F452
:1029A000803363652046FFF737FF236880221A6073
:1029B000A9E7636D43F400336365204600F06CFCC7
:1029C00023684FF480721A60A1E7626D42F480427E
:1029D0006265A26D4FF4806142F00802A265204654
:1029E0001960BDE8704000F055BCDA680B499143AE
:1029F0007FF464AFBFE7636D43F010036365A36DBD
:102A000043F00103A3653CE7636D43F01003636586
:102A1000A36D43F00103A365ADE700BF00200002F2
:102A2000836A5A6D12F0500F10B55A6D1DD1196896
:102A300042F400725A650A6812F0080FCA681BD087
:102A400012F4406F0DD1CA6894040AD45A6D22F46E
:102A500080725A655A6DD10403D45A6D42F0010256
:102A60005A651846FFF700FA10BDD2060AD4DB6C8F
:102A7000BDE810405B6B18479007E7D51846FFF795
:102A8000F3F9F1E71846FFF7C9FE10BD806A08B5F3
:102A9000436D43F040034365836D43F00403836556
:102AA000FFF7BCFE08BD00BFF0B590F8502083B022
:102AB0000346012A4FF00000019000F02E811C68AF
:102AC000012083F85000A26812F004025AD148682D
:102AD000052840F2978082094FF01F0E00F01F007A
:102AE0000EFA00FE02F00C026FEA0E060D6804F109
:102AF000300EC5F3846C5EF802500CFA00F0F44618
:102B000005EA060E40EA0E004CF80200A2685607DD
:102B100046D5A2680868A268D507064613D4CF68D0
:102B2000B34AD4F8B05007F0180C22FA0CF2C0F3F4
:102B3000120C024025EA0C052A43C4F8B020AD4A25
:102B4000974200F09980AC4A164227D0AB4AAC4974
:102B500090688E4200F0E0751DD0AA498E4200F0C8
:102B6000DF80A9498E4219D110F4800016D1A749FF
:102B70008C4213D1916821F0E071294341F4800126
:102B8000916003E05A6D42F020025A65002283F8FA
:102B9000502003B0F0BD010240F1FA800020F5E7BB
:102BA000A268120766D408688A68C60D06F0040693
:102BB00004F11405C0F3045002FA00F74FF0070CBB
:102BC00072590CFA00F022EA00023A4372510E697F
:102BD000E268042E1ED004F16007C2F3C102500067
:102BE00057F826C00A688A4D02F0F8420CEA05053B
:102BF00015434A6982402A4342F0004247F82620A2
:102C0000086888E70238032800F2A481DFE800F0B2
:102C1000999EA3A80868226E226EC0F31205C2F323
:102C20008462002D40F0FA80C0F38465AA4200F06F
:102C30004A81626E666E04F16002C6F3846604F136
:102C40006407AE4200F065819668966802F1080755
:102C5000C6F38466AE4200F04A81D668D66802F1B7
:102C60000C07C6F3846295427FF455AF3A6822F0B0
:102C700000423A6008684EE7BCF1000F78D090FA45
:102C8000A0F2002A00F0FB80B2FA82F2013202F0D8
:102C90001F02092A40F2F38090FAA0F2002A00F005
:102CA0004A81B2FA82F20132920602F0F84290FAB8
:102CB000A0F5002D00F04481B5FA85F5013505F049
:102CC0001F05012606FA05F5154390FAA0F0002825
:102CD00000F03481B0FA80F0421C02F01F006FF067
:102CE0001D06032212FB0062120542F000722A4305
:102CF000D60D886806F0040604F11405C2F30452E8
:102D000000FA02F74FF0070C70590CFA02F220EAB1
:102D100002023A4372510E6815E7022003B0F0BD7B
:102D200010F080707FF43AAFA1F1F7418C427FF44C
:102D300035AF916821F0E071294341F080719160D5
:102D400024E70C2048606FF4F836CFE61220486084
:102D50006FF4F806CAE6182048606FF0F856C5E62A
:102D60004FF480724A6000206FF01F060422BDE617
:102D7000800E013000F01F06092E2BD88506012297
:102D8000B24005F0F845154306EB46021205AEE7E2
:102D90001E498C427FF402AF91681E4821F0E07119
:102DA000294341F40001916002681B499209A1FB8B
:102DB00002129209013202EB420292000192019A40
:102DC000002A3FF4EBAE019A013A0192019A002ADF
:102DD000F9D1E3E606EB460285061E3A012005F02E
:102DE000F845120500FA06F642F0007235437EE718
:102DF000FFFF070000007F40000008800003045030
:102E0000000052C7000084CB010000800000045085
:102E100000F0FF0320000020632D3E0590FAA0F58E
:102E20001DB1B5FA85F5AA424DD0626E666E04F109
:102E30006002C6F3846604F1640790FAA0F51DB140
:102E4000B5FA85F5AE4264D09568966802F1080738
:102E5000C6F3846690FAA0F51DB1B5FA85F5AE42C9
:102E600045D0D568D56802F10C07C5F3846290FAA5
:102E7000A0F5002D3FF44FAEB5FA85F5F3E690FAD4
:102E8000A0F2002A63D0B2FA82F20132920602F076
:102E9000F84290FAA0F5002D57D0B5FA85F5013526
:102EA00005F01F05012606FA05F5154390FAA0F076
:102EB000002847D0B0FA80F0013000F01F0000EB8E
:102EC0004000020513E7206E224620F0004042F841
:102ED000600F606E0868666EC0F3120504F1640747
:102EE000C6F38466002DA8D1C0F38465A9E63868CE
:102EF00020F000403860D068086802F10C07D26802
:102F0000C0F31205C2F38462002DB0D1C0F3846512
:102F1000A9E6386820F00040386090680868966834
:102F2000C0F3120502F10807C6F38466002D91D1A3
:102F3000C0F384658EE64FF08062B8E6084AD6E6B4
:102F40000225C1E64FF44012D1E60225ADE74FF06D
:102F500080629EE7062048606FF4F866C6E500BF11
:102F6000000050FE03689A68520770B5044636D5D3
:102F70009A68DA68960104D5208B40F201129042DB
:102F800032D002299A680ED0520702D59A68960765
:102F900056D501293AD09A68100739D4032914BFAD
:102FA00004250C2502E010073ED40825FFF736FB68
:102FB000236806469B681D4214D0FFF72FFB831B36
:102FC000052B2368F6D99A682A42F3D0636D43F043
:102FD00010036365A36D01200343A36570BD9A6868
:102FE0001607C6D4002070BD1A68550606D41E4ABE
:102FF00001E0013AEAD019684806FAD540221A6081
:103000009A68510702D59A68920722D50425CDE720
:103010009A689207C2D49A6822F0004222F03F02D6
:1030200042F020029A60B9E79A689107BDD49A6885
:1030300022F0004222F03F0242F020029A60B4E700
:103040009A6822F0004222F03F0242F010029A6099
:103050009FE79A6822F0004222F03F0242F01002FD
:1030600004259A60A2E700BF000040A303689A68A5
:10307000D20701D5002070479968184A114270B5EF
:10308000064608D0736D43F010037365B36D0120DD
:103090000343B36570BD9A68114D2A4042F00102A6
:1030A0009A60FFF7BBFA336804461A68D00713D456
:1030B0009A68D10704D49A682A4042F001029A60C3
:1030C000FFF7ACFA031B022B3368EED91A68D2075C
:1030D000D8D51A68D007EBD5002070BD3F0000801E
:1030E000C0FFFF7FF8B503689D6815F0040541D166
:1030F00090F85030012B04463CD0012380F850302A
:103100000F461646FFF7B2FF002835D1636DE06C1D
:10311000216823F4706323F0010343F48073636533
:10312000636D13F480531CBFA36D23F00603A365E6
:10313000134BC362134B03631C25134B43630D6096
:10314000002584F850504D6845F010054D60CD685D
:1031500045F0010533463A46CD60403100F078FA3B
:103160002268936823F0004323F03F0343F00403F5
:103170009360F8BD0220F8BD84F85050F8BD00BF40
:10318000212A00080D2800088D2A000838B5036898
:103190009A68950702D59B68002038BD9A68D407C5
:1031A0002BD59A6802F00D02012A044608D0636DFF
:1031B00043F010036365A36D01200343A36538BD8D
:1031C0009A6822F0004222F03F02032142F00202FC
:1031D0009A601960FFF722FA23689B68D9070546B1
:1031E0000BD5FFF71BFA401B0228236802D99A6807
:1031F000D207DCD49B68DB07F3D4002038BD00BFC6
:1032000038B590F85030012B28D0012380F8503089
:1032100003210446FFF7A6FE0546D0B92368E06CFB
:10322000DA6822F00102DA6090F82520022A18D02C
:103230005A6822F010025A602046FFF7A7FF0546A1
:1032400038B9636D23F4885323F0010343F001037D
:103250006365002384F85030284638BD022528468F
:1032600038BD00F03BFA054660B1636D226843F05B
:1032700040036365536823F0100320465360FFF753
:1032800085FFE6E72268536823F010035360D3E715
:10329000704700BF704700BF704700BF704700BF56
:1032A000704700BF0749CA6803024FF6FF0003F4E6
:1032B000E0630240134343F0BF6343F40033CB6049
:1032C000704700BF00ED00E01C4BDB68C3F3022336
:1032D00000B5C3F1070EBEF1040F03F1040C28BFC3
:1032E0004FF0040EBCF1060F1BD9033B4FF0FF3C1F
:1032F0000CFA03FC22EA0C024FF0FF3C0CFA0EFC25
:1033000021EA0C019940002841EA02010CDB00F19E
:103310006040090100F56140C9B280F800135DF812
:1033200004FB00221346E7E7054B00F00F000901FC
:103330000344C9B219765DF804FB00BF00ED00E05C
:10334000FCEC00E0002808DB044A4109012300F0FE
:103350001F0003FA00F042F82100704700E100E08E
:103360000138B0F1807F10D210B44FF0E023084C48
:1033700058614FF0F00C84F823C00022072110465A
:103380009A615DF8044B196170470120704700BFD6
:1033900000ED00E088B110B50379044603F0FF02A8
:1033A0003BB10023022101222171236122711846C1
:1033B00010BD4271FEF7E0FEF3E70120704700BF49
:1033C0004379012B27D00268022310B403711468DB
:1033D00001F0100C012303FA0CF32343136013686C
:1033E00079B903F03C03042B03D1536843F0010384
:1033F000536000230122027143715DF8044B1846AB
:10340000704703F47013B3F5802FF2D1536843F083
:1034100002035360EDE70220704700BF10B483B091
:10342000006800240194019051B9019908310A44BF
:103430000192019A0020136003B05DF8044B7047BD
:10344000019914310A440192F3E700BFF8B54379BA
:10345000012B064608687CD00123737104284FF0C5
:1034600002030C461546337138D0316802F0100261
:103470002369012B08D18D6B63691F279740934007
:1034800025EA07052B438B63D4E902352B4303431D
:1034900007256068CC6B954024EA050493402343DC
:1034A000CB630B684FF48044944023EA04030B6021
:1034B0000B6840F6FC749440904023EA04030343F5
:1034C0000B600B68C02000FA02F2002423EA02021B
:1034D00001230A60337174712046F8BDFFF79EF82E
:1034E00007462DB114E0FFF799F8C31B012B32D822
:1034F00033685B6B1B04F6D40120FFF795F8316845
:10350000A3690B640EE0FFF789F8C31B012B22D8D7
:1035100033685B6B002BF6DB0120FFF785F8316821
:10352000A3694B6405F010028B6CE06940F2FF3533
:103530009540904023EA050303438B64CB6C206ADB
:10354000FF259540904023EA05030343CB642068A0
:103550008EE70220F8BD3369032243F0080333618C
:1035600032711046F8BD00BF002850D0F0B4324B85
:1035700004689C4242D9314A314B324D2244A3FB6C
:10358000023212099200022380F82530D0E902634A
:1035900007692168056433433B43476942643B4301
:1035A00087693B43C7693B43076A21F4FF4121F028
:1035B00070013B430B43B6F5804F236014D0224B80
:1035C0009D4226D0D3F8A81402F01C020F24944088
:1035D00021EA0401C3F8A8144168D3F8A84401FA09
:1035E00002F22243C3F8A82400230122C36380F817
:1035F000243080F82520F0BC18467047134A104B41
:10360000114D2244A3FB023212099200BBE70120B4
:103610007047D5F8A81002F01C020F24944021EA4C
:103620000401C5F8A8104368D5F8A81093400B43CF
:10363000C5F8A830D8E700BF07040240F8FBFDBF7B
:10364000CDCCCCCC0004024000000240F8FFFDBF0E
:1036500070B490F82440012C3DD0012480F824401F
:1036600090F82540012C5FFA84FC05D0002380F8F7
:10367000243070BC02207047022580F82550046871
:103680000025C5632668456C26F00106266005F016
:103690001C05066C0CFA05F5756063608368102BD9
:1036A000036B0BBFA260A160E160E26053B12368CD
:1036B00043F00E032360236843F0010300202360DE
:1036C00070BC7047236823F004032360236843F031
:1036D0000A032360EFE7022070BC704790F82530A2
:1036E000022B06D004220023C26380F8243001207C
:1036F00070470268436C116821F00E011160116877
:1037000021F0010111604FF0010C026C03F01C0369
:103710000CFA03F35360002380F825C080F82430AE
:103720001846704790F82520022A03D00422C2636D
:10373000012070470168426C10B50C6824F00E043B
:103740000C600C6824F001040C6002F01C02046C94
:10375000012101FA02F26260826B80F825100024D8
:1037600080F8244012B19047204610BD104610BD8D
:1037700070B4436C066C056831682C6803F01C0358
:1037800004229A400A420ED014F0040F0BD02B688A
:103790009B0603D42B6823F004032B60036B726039
:1037A000CBB170BC184702229A400A4215D014F0DF
:1037B000020F12D02B68990606D42B6823F00A0357
:1037C0002B60012380F82530C36A7260002180F8E5
:1037D0002410002BE5D170BC704708229A400A42A1
:1037E000F9D02207F7D52A68416B22F00E022A6031
:1037F000012202FA03F300247360C26380F82440BC
:1038000080F825200029E6D070BC08472DE9F04F4C
:103810000C6885B0002C00F0BF804FF0000C624EA9
:10382000009163464FF0010B63E0032A40F0AE8045
:1038300002FA0CF26FEA020E076807EA0E0E42EA7D
:103840000E0215F4403F02604DD0584F3A6E42F0E0
:1038500001023A663A6E02F001020392039A23F0E3
:10386000030202F1804202F5803203F00307D2F82E
:1038700008E0BF000F2101FA07F8B0F1904F2EEADF
:10388000080E0CD04A49884200F089804949884294
:103890000CBF0221072101FA07F74EEA070EC2F812
:1038A00008E0B2686FEA0A0EEF0254BF0EEA0202A5
:1038B0004AEA0202B260F768A90254BF0EEA07079B
:1038C0004AEA0707F7607768AA0354BF0EEA0707BA
:1038D0004AEA070777603268E90354BF0EEA02023A
:1038E0004AEA02023260013334FA03F20CF1020CAC
:1038F00052D00BFA03F818EA040AF4D000994D6884
:1039000005F00302571E012F8FD8D0F80890CF681A
:10391000032101FA0CFE29EA0E0907FA0CF747EA1F
:1039200009078760476827EA0808C5F300179F4022
:1039300047EA08076FEA0E0E4760C768009907EA72
:103940000E088F6807FA0CF747EA0807022AC760D3
:1039500002FA0CF27FF470AF4FEAD30900EB890949
:1039600003F00708D9F82010019100990F694FEA78
:1039700088080F2107FA08F701FA08F8019921EAE7
:10398000080847EA0807C9F8207055E7032101FA3B
:103990000CFE6FEA0E0ED0E705B0BDE8F08F0BFA13
:1039A00007F74EEA070E7AE70004014000100240D4
:1039B00000040048000800480369194214BF0120B0
:1039C000002070470AB1816170478162704700BF73
:1039D000436901EA030221EA030141EA02418161EC
:1039E000704700BF044A5169014200D1704708B5D1
:1039F0005061FEF7C1FA08BD000401402DE9F0470F
:103A000082460E4617464FF02008DAF800309D69CE
:103A100015F0040540F0C6809A6912F0100251D0EA
:103A20001022DA61B946741C9A6951D1900600F1EE
:103A3000B080002D40F0B0809C69A106FCD5C3F891
:103A40001C800D2007244FF0050C042201259969E4
:103A500011F4807F27D04FF480724E05DA6126D4AE
:103A60008D0579D460469A69950744BF00229A6211
:103A70009A69D40703D49A6942F001029A615A689C
:103A80005C4C22405A60DAF8443000210343202283
:103A9000CAF844308AF840108AF841208AF8421067
:103AA0000120BDE8F087480551D542F008004FF4E9
:103AB00080628C05DA61D6D540F002004FF40072C6
:103AC000DA61D0E7092003244FF0010C1546BEE768
:103AD00092065ED4002D5FD1FEF7A0FDA0EB090099
:103AE0008642DAF8003001D3002E9CD158689AF84B
:103AF000422099690C04D2B20FD541040DD4202A7A
:103B00000BD05A6842F480425A60FEF787FDDAF81B
:103B10000030814601E0DAF800309C6914F020049E
:103B200081D1FEF77BFDA0EB09001928F3D9DAF863
:103B300044308AF8404043F02003CAF8443001255D
:103B40008AF84180DAF800308AF84240E5E78905D2
:103B500004D542F00200B1E72046AFE7002D46D180
:103B60009A69920621D4FEF759FDC01BB04202D8D3
:103B7000002E7FF44AAFDAF84430202213430021AC
:103B8000CAF844308AF840108AF841200120BDE884
:103B9000F087002D3FF453AF0D2007244FF0050CA4
:103BA000042254E70020BDE8F0879A69510703D545
:103BB000BAF82820002AF5D19A6912F010021CBF29
:103BC000102104224FF0200418BFD961CAF8442004
:103BD000DC615A6807490A4000215A608AF841406E
:103BE0008AF840108AF842100120BDE8F08710469C
:103BF00039E700BF00E800FE2DE9F04782460E4697
:103C000017464FF02008DAF800309D6915F00205DC
:103C100040F0C7809A6912F0100251D01022DA6188
:103C2000B946741C9A6951D1900600F1B180002DFB
:103C300040F0B1809C69A106FCD5C3F81C800D2022
:103C400007244FF0050C04220125996911F4807FA7
:103C500027D04FF480724E05DA6126D48D0579D4D1
:103C600060469A69940744BF00229A629A69D10714
:103C700003D49A6942F001029A615A684B4C22407F
:103C80005A60DAF84430002103432022CAF8443055
:103C90008AF840108AF8412001208AF84210BDE8D5
:103CA000F087480551D542F008004FF480628C053A
:103CB000DA61D6D540F002004FF40072DA61D0E745
:103CC000092003244FF0010C1546BEE792065FD48D
:103CD000002D60D1FEF7A2FCA0EB09008642DAF8C5
:103CE000003001D3002E9CD158689AF8422099697F
:103CF0000C04D2B20FD541040DD4202A0BD05A683F
:103D000042F480425A60FEF789FCDAF800308146BE
:103D100001E0DAF800309C6914F0200481D1FEF74C
:103D20007DFCA0EB09001928F3D9DAF84420DAF871
:103D300000308AF8404042F02002CAF844200125B1
:103D40008AF841808AF84240E5E7890504D542F0C7
:103D50000200B1E72046AFE735BB721C3FF455AF18
:103D6000FEF75CFCC01BB04202D8002E7FF44BAFC4
:103D7000DAF84430002243F020032021CAF844300E
:103D80008AF840208AF8411001208AF8422086E70C
:103D9000002D3FF452AF0D2007244FF0050C0422F4
:103DA00053E70020BDE8F08710465AE700E800FE20
:103DB0002DE9F04782460E4617464FF02008DAF804
:103DC00000309D6915F0200540F0C5809A6912F019
:103DD000100251D01022DA61B946741C9A6951D18F
:103DE000900600F1AF80002D40F0AF809C69A106E5
:103DF000FCD5C3F81C800D2007244FF0050C0422CD
:103E00000125996911F4807F27D04FF480724E0507
:103E1000DA6126D48D0579D460469A69910744BF4A
:103E200000229A629A69D20703D49A6942F0010289
:103E30009A615A684A4C22405A60DAF844300021AC
:103E400003432022CAF844308AF840108AF84120FF
:103E50008AF842100120BDE8F087480551D542F0AC
:103E600008004FF480628C05DA61D6D540F002007C
:103E70004FF40072DA61D0E7092003244FF0010CFF
:103E80001546BEE792065DD4002D5ED1FEF7C6FB57
:103E9000A0EB09008642DAF8003001D3002E9CD155
:103EA00058689AF8422099690C04D2B20FD541049F
:103EB0000DD4202A0BD05A6842F480425A60FEF793
:103EC000ADFBDAF80030814601E0DAF800309C6999
:103ED00014F0200481D1FEF7A1FBA0EB0900192802
:103EE000F3D9DAF844308AF8404043F02003CAF8A6
:103EF000443001258AF84180DAF800308AF84240DF
:103F0000E5E7880504D542F00200B1E72046AFE7B7
:103F100025BBFEF783FBC01BB04202D8002E7FF406
:103F20004EAFDAF84430002243F020032021CAF8D3
:103F300044308AF840208AF841108AF84220012053
:103F4000BDE8F087002D3FF454AF0D2007244FF05B
:103F5000050C042255E70020BDE8F08710465CE719
:103F600000E800FE00284FD010B590F8413004461C
:103F700003F0FF02002B42D02368242284F8412062
:103F80001968626821F0010122F0706219601A61FB
:103F90009A68E16822F4004201299A60A2682AD056
:103FA00042F4044202299A6004BF4FF400625A604E
:103FB0005968226941F0007141F40041596061691A
:103FC000D8680A43A16920F4004042EA0122E1696D
:103FD000D860206ADA6001431960196841F0010174
:103FE000196000222023626484F84130226384F83F
:103FF0004220104610BD42F400429A60D8E780F893
:104000004020FEF7F5F8B7E7012070472DE9F84F9B
:104010001E4690F84130DDF82880202B40F08D803E
:1040200090F84030012B054600F08780012380F88E
:1040300040308B461746FEF7F1FA814605E0FEF761
:10404000EDFAA0EB090019287AD82868846914F4DD
:104050000044F4D1212385F84130102385F8423003
:104060006C646E856B8D6F629BB2FF2B6C6375D831
:104070006B8DA7499BB22B85DAB243681940CBF30D
:1040800009030B4343EA024343F0007343F4005334
:104090004360CBF3090B6B8D9BB2002B00F0EF80DC
:1040A0004FF0200A866916F0020640F0D28083693C
:1040B00013F0100371D01023C3614F46B8F1FF3FD6
:1040C00083696FD1990600F1E380002E40F0E38010
:1040D00083699A06FCD5C0F81CA00D21072405278A
:1040E00004230126826912F4807F47D04FF4807345
:1040F000C361530546D4960500F193803946836920
:104100009E0744BF002383628369DC0703D483696D
:1041100043F00103836142687E4B1A4042606B6C3E
:10412000002420220B436B6485F8404085F8412031
:1041300085F842400120BDE8F88F0220BDE8F88FE5
:104140006B6C002243F0200320216B6485F8402033
:1041500085F84110012085F84220EFE743686C4A5A
:104160001A40CBF30903134343F0FF7343F4903336
:10417000FF222A85CBF3090B43608CE751054BD511
:1041800043F008014FF48063C3619305B7D541F054
:1041900002014FF40073C361B1E709210324012731
:1041A0001E469FE79B0673D4002E74D1FEF736FAA5
:1041B000C01B8045286803D3B8F1000F7FF47EAFA1
:1041C000416895F8423082691204DBB20DD54C0487
:1041D0000BD4202B09D0436843F480434360FEF79F
:1041E0001DFA0746286800E02868846914F0200456
:1041F0007FF464AFFEF712FAC01B1928F4D96B6C78
:10420000286885F8404043F020036B64012685F858
:1042100041A085F84240E8E7970504D543F0020144
:10422000B7E72146B5E7002E60D1B8F1FF3F3FF474
:1042300039AFFEF7F3F9A0EB0900804580D3B8F160
:10424000000F3FF47DAF2868866916F002063FF440
:104250002EAF696A2B8D11F8012B82626A8D69621B
:10426000013A92B26A856A8D013B9BB292B22B856C
:1042700002B123B36B8D9BB2002B7FF413AF4A4680
:1042800041462846FFF794FD002847D0012055E716
:10429000002E3FF420AF0D2107240527042321E73A
:1042A00083691B0611D4FEF7B9F9A0EB090080451C
:1042B000FFF446AFB8F1000F3FF442AF2868B8F101
:1042C000FF3FEDD183691A06FCD56B8D9BB2FF2BA6
:1042D0000ED94368104A13404BEA030343F0FF73BF
:1042E00043F48033FF222A854360C3E7194606E77B
:1042F0006B8D09499BB22B85DAB243680B404BEAC0
:10430000030343EA024343F000734360B2E700BF94
:10431000009800FC00E800FE009C00FC2B68064CA6
:104320002021D9615A6822405A6085F8411085F8E9
:10433000400085F8420001E700E800FE2DE9F04763
:10434000984690F84130089E202B40F0928090F8DB
:104350004030012B044600F08C80012380F840306F
:1043600089461746FEF75AF9054605E0FEF756F965
:10437000401B192800F28A802368986910F40040D5
:10438000F4D1222284F84120102284F84220606473
:10439000A4F82A80628D676292B2FF2A6063C9F333
:1043A000090700F28280628D4E4892B22285D1B216
:1043B0005A6802403A4342EA014242F0007242F433
:1043C00010525A60638D9BB2002B3DD0DFF81C81E8
:1043D000DFF81CA14FF0FF0903E0638D9BB2002BB7
:1043E00032D02A4631462046FFF708FB002876D116
:1043F0002268636A526A1A70628D238D616A013A7B
:1044000092B26285628D013B01319BB292B26162D0
:104410002385002AE1D0002BDFD1701C22682BD12C
:1044200093691906FCD5638D9BB2FF2B49D953685C
:10443000A4F8289003EA08033B4343EA0A035360C5
:10444000638D9BB2002BCCD12A4631462046FFF724
:10445000AFFC002843D12368234D2021D9615A683D
:104460002A405A6084F8411084F8400084F84200E1
:1044700000E00220BDE8F08793691B06D3D4FEF765
:10448000CDF8401B864201D3002EC6D1636C0022BA
:1044900043F020032021636484F8402084F8411015
:1044A00084F842200120BDE8F0875A680D490A408F
:1044B0003A4342F0FF7242F49232FF2121855A6062
:1044C00080E7638D9BB22385D9B2536803EA080362
:1044D00043EA01433B4343F0007353607DE701200F
:1044E000BDE8F087009800FC00E800FE009C00FC9E
:1044F0000000FF012DE9F84F9A4690F84130BDF8D1
:104500002CB0DDF83080202B40F0A4800A9B0446BC
:10451000002B00F09980BBF1000F00F0958090F81F
:104520004030012B00F09680012380F840300F4688
:104530009146FEF773F8064605E0FEF76FF8801B1C
:10454000192800F28A8023689D6915F40045F4D18A
:104550000A9A6262212284F84120402284F8422093
:104560006564A4F82AB05A68764965630A405FFA20
:104570008AF142EA0142C7F309073A4342F08072E6
:1045800042F400525A60414632462046FFF734FB5F
:10459000002840F09680BAF1010F40F08680226832
:1045A0005FFA89F39362B8F1FF3F65D193691D0605
:1045B000FCD5638D9BB2FF2B6BD8638D62489BB299
:1045C0002385D9B2536803403B4343EA014343F098
:1045D000007353605C4DDFF878A14FF0FF0904E0F1
:1045E000638D9BB2002B00F08D8032464146204601
:1045F000FFF702FB002840F08380636A226813F80B
:10460000011B91626362638D013B9BB26385238DC5
:10461000618D013B9BB289B223850029E0D0002B3C
:10462000DED1B8F1FF3F51D193691906FCD5638DF6
:104630009BB2FF2B57D95368A4F828902B403B43DB
:1046400043EA0A035360CBE74FF40073636401202D
:10465000BDE8F88F0220BDE8F88F636C002243F0BC
:1046600020032021636484F8402084F8411084F8FA
:1046700042200120BDE8F88F9369180699D4FDF710
:10468000CDFF801B804552D3B8F1000F4FD0226878
:1046900089E753682C490B403B4343F0FF7343F4D5
:1046A0008033FF212185536094E723684FEA192264
:1046B0009A62414632462046FFF79EFA00283FF4B0
:1046C0006EAF002384F840300120C1E793691B06D8
:1046D000ADD4FDF7A3FF801B8045BED3B8F1000F1A
:1046E000BBD022689DE7638D9BB22385D9B2536806
:1046F0002B403B4343EA014343F0007353606FE7B1
:104700000120A5E7324641462046FFF751FB00282D
:10471000F6D123680D4D2021D9615A682A405A608C
:1047200084F8411084F8400084F8420090E7636CFC
:1047300020210B430022636484F8411084F8422056
:10474000BFE700BF009800FC009C00FC00E800FEF2
:104750000000FF012DE9F047984690F84130BDF880
:1047600024A00A9D202B40F0A680089B0446002B25
:1047700000F09B80BAF1000F00F0978090F8403075
:10478000012B00F09880012380F840300F469146BD
:10479000FDF744FF064604E0FDF740FF801B1928A3
:1047A00074D82368986910F40040F5D1089A6262C1
:1047B000222284F84120402284F842206064A4F838
:1047C0002AA05A68784960630A405FFA88F142EA91
:1047D0000142C7F309073A4342F400525A6029469E
:1047E00032462046FFF708FA002840F0A980B8F1C9
:1047F000010F40F0998022685FFA89F39362681C88
:104800005CD193695906FCD5638D9BB2FF2B7FD891
:10481000638D65489BB22385D9B2536803403B43FF
:1048200043EA014343F0007343F410535360681CA0
:10483000DFF87C81DFF87CA14FF0FF091CD1936980
:104840005907FCD5636A526A1A70638D626A013B2C
:104850009BB263850132238D6262628D013B9BB204
:1048600092B223850AB1002B3ED0638D9BB2002B00
:1048700079D0681C2268E2D093695B07E2D4FDF727
:10488000CDFE801B854201D3002DF2D1636C002246
:1048900043F020032021636484F8402084F8411011
:1048A00084F842200120BDE8F0874FF40073636470
:1048B0000120BDE8F0870220BDE8F08793695B0620
:1048C000A2D4FDF7ABFE801B854260D3002D5ED0E5
:1048D000226894E793691B060CD4FDF79FFE801BAA
:1048E0008542D3D3002DD1D0681C2268F2D19369C0
:1048F0001906FCD5638D9BB2FF2B26D95368A4F80B
:10490000289003EA08033B4343EA0A035360ACE7F9
:10491000536825490B403B4343F0FF7343F4923304
:10492000FF212185536082E723684FEA19229A62AA
:10493000294632462046FFF75FF900283FF45BAF77
:10494000002384F840300120B3E7638D9BB22385B8
:10495000D9B2536803EA08033B4343EA014343F0F7
:104960000073536081E7324629462046FFF720FA5C
:10497000B8B923680D4D2021D9615A682A405A6080
:1049800084F8411084F8400084F8420091E7636C99
:1049900020210B430022636484F8411084F84220F4
:1049A000CEE7012085E700BF009800FC00E800FE8C
:1049B000009C00FC0000FF0190F84120202A23D138
:1049C0005FFA82FC90F84020012A03461CD002685E
:1049D000242000B583F84100106820F00100106029
:1049E000106820F480501060106801431160116855
:1049F0004FF0000E41F00101116083F841C083F8CF
:104A000040E070465DF804FB0220704790F84120BA
:104A1000202A22D100B55FFA82FE90F84020012AB8
:104A200003461CD00268242083F84100106820F05F
:104A300001001060106820F4706040EA01211160EC
:104A400011684FF0000C41F00101116083F841E062
:104A500083F840C060465DF804FB022070470220E6
:104A60005DF804FB024B186800F4C060704700BF9B
:104A700000700040B0F5007F0ED01C4A136803F4AC
:104A8000C063B3F5806F2DD0136823F4C06343F483
:104A9000806300201360704714490B6803F4C063FF
:104AA000B3F5007F1ED00B68114A124823F4C0638F
:104AB00043F400730B601368322202FB03F34A696C
:104AC000A0FB03039B0C500503F1010306D500E096
:104AD00023B14A69520503F1FF33F9D4034B5B69F3
:104AE0005B0501D400207047032070470070004030
:104AF0002000002083DE1B4330B5204DAB6DDB0072
:104B000083B004461CD5FFF7ADFFB0F5007F29D078
:104B1000802C13D82FD0A4F17004B4FA84F4640963
:104B200017490B6823F0070323430B60086800F064
:104B30000700001B18BF012003B030BD0324EFE7BE
:104B4000AB6D43F08053AB65AB6D03F080530193C5
:104B5000019BFFF787FFAB6DB0F5007F23F080531B
:104B6000AB65D5D1802C04D9A02C8CBF02240124A4
:104B7000D6E70024D4E70224D2E700BF00100240A9
:104B800000200240284A9368D26813F00C0308D032
:104B90000C2B38D0042B34D0082B244818BF00200D
:104BA0007047214A1168090754BFD2F8942012684F
:104BB0001F4954BFC2F30322C2F3031251F822006B
:104BC00003B30C2B2DD1184BDB6803F00303022B2E
:104BD00025D0164A032B08BF1046134BD968DA6854
:104BE000DB68C3F34163C2F30622C1F30211013350
:104BF00002FB00F001315B00B0FBF1F0B0FBF3F021
:104C000070470C48704702F00302012AC9D0064BD6
:104C1000DB6803F00303022B4FF00000D9D10548F5
:104C2000DBE70020704700BF0010024000127A004E
:104C300044BE01080024F400002800F039822DE968
:104C4000F043994A03689568D6680446D80683B04D
:104C500005F00C0506F003062ED5002D00F02B8183
:104C60000C2D00F02581A3698F4F002B00F09B8154
:104C70003B6843F001033B60FDF7D0FC804606E053
:104C8000FDF7CCFCA0EB0800022800F29C813B68F9
:104C90009B07F5D53B6843F008033B603B68226AFD
:104CA00023F0F00313433B607B68E26923F47F4306
:104CB00043EA02237B602368D90700F1CB80990780
:104CC00023D5042D00F05F810C2D00F05981E3689D
:104CD000754E002B00F09281336843F4807333608B
:104CE000FDF79CFC074605E0FDF798FCC01B022879
:104CF00000F2698133685B05F6D57368226923F099
:104D0000F85343EA026373602368190719D563698E
:104D1000654E002B00F02081D6F8943043F001035B
:104D2000C6F89430FDF77AFC074605E0FDF776FCFF
:104D3000C01B022800F24781D6F894309A07F5D5B7
:104D400023685F073FD5584B9A6DD60000F1548118
:104D50009A6D42F080529A659B6D03F080530193E7
:104D6000019B0126514F3B68D80540F1A381A36800
:104D7000012B00F05581052B00F0C7814A4FD7F871
:104D8000902022F00102C7F89020D7F8902022F05E
:104D90000402C7F89020002B40F04981FDF73EFC4B
:104DA00041F28839804606E0FDF738FCA0EB0800A8
:104DB000484500F20881D7F890309B07F4D4002EC4
:104DC00040F08A812368980618D5636A364E002B16
:104DD00000F05A81D6F8983043F00103C6F89830B5
:104DE000FDF71CFC074605E0FDF718FCC01B022878
:104DF00000F2E980D6F898309907F5D5A36A2BB36D
:104E0000022B00F090810C2D00F09680264B1A6842
:104E100022F080721A601A68120103D4DA6822F054
:104E20000302DA60204CE36823F0887323F48033B4
:104E3000E360FDF7F3FB054605E0FDF7EFFB401BE4
:104E4000022800F2C08023689B01F6D4002003B042
:104E5000BDE8F083082D75D00C2D71D06368B3F5D3
:104E6000803F00F0B480B3F5A02F00F041810E4FD9
:104E70003A6822F480323A603A6822F480223A603A
:104E8000002B40F0A980FDF7C9FB804606E0FDF746
:104E9000C5FBA0EB0800642800F295803B689803EE
:104EA000F5D423680BE700BF0010024000700040FB
:104EB000012E7FF4D8AEA74B1B68990739D4A54BB8
:104EC000206A1A68120756BFD3F894301B681B0972
:104ED00003F0F003984200F2BF809E4B1A6842F044
:104EE00008021A601A6822F0F00202431A605A6837
:104EF000E16922F47F4242EA01225A60002D00F06B
:104F0000F180FFF73FFE934B934A9B68C3F3031373
:104F1000D35C924A03F01F0320FA03F31068904A0F
:104F20001360FDF739FB40B92368D9077FF5C7AE99
:104F300090E7A369002BC2D1012003B0BDE8F08344
:104F4000032E8BD1834A126892037FF5B8AE626854
:104F5000002A7FF4B4AEEFE7D6F8943023F00103D3
:104F6000C6F89430FDF75AFB074604E0FDF756FB00
:104F7000C01B022827D8D6F894309B07F6D4DFE66A
:104F8000022E7FF4A4AE734A1268520502D5E2687D
:104F9000002AD1D06F4920694A6822F0F85242EACB
:104FA00000624A60B1E63B6823F001033B60FDF715
:104FB00035FB80463B689807B6D5FDF72FFBA0EB85
:104FC00008000228F6D9032003B0BDE8F083614A47
:104FD000136843F480331360FDF720FBDFF874811E
:104FE000074604E0FDF71AFBC01B6428EBD8D8F88D
:104FF00000309B03F6D554E70026B3E6336823F46C
:1050000080733360FDF70AFB074604E0FDF706FBFB
:10501000C01B0228D7D833685805F7D4236874E634
:105020004C4AD2F8903043F00103C2F89030FDF7BB
:10503000F5FADFF82081074641F2883904E0FDF7F0
:10504000EDFAC01B4845BED8D8F890309A07F6D57F
:10505000002E3FF4B7AE3FE0FFF74EFD00287FF48F
:105060006BAF3C4B1A6842F008021A601A68216A5A
:1050700022F0F0020A431A605A68E16922F47F4282
:1050800042EA01225A603CE7D6F8983023F0010347
:10509000C6F89830FDF7C2FA074604E0FDF7BEFAFD
:1050A000C01B02288FD8D6F898309A07F6D4A5E608
:1050B000012070473B6843F480733B60FDF7AEFA14
:1050C00080463B68D9053FF552AEFDF7A7FAA0EB45
:1050D00008000228F5D976E71E4A936D23F0805325
:1050E00093656FE6FFF708FD00283FF40AAF23E75A
:1050F00003F18043A3F53C331A6842F480221A601E
:105100001A6842F480321A6066E7124BD3F8902096
:1051100042F00402C3F89020D3F8902042F001023C
:10512000C3F8902083E70B4EE26AF36803F00301B3
:10513000914251D00C2D3FF4FFAE064D2B685B0120
:105140003FF5FAAE2B6823F080732B60FDF766FA0B
:1051500006460DE0001002402CBE01082800002089
:1051600020000020FDF75AFA801B02283FF62BAFE3
:105170002B689F01F6D4E968364BE26A206B364E05
:105180000B401343D4E90D1243EA012343EAC263FF
:10519000D4E90F120138490843EA001301395208D3
:1051A00043EA4153013A43EA4263EB602B6843F020
:1051B00080732B60EB6843F08073EB60FDF72EFA91
:1051C000044605E0FDF72AFA001B02283FF6FBAE75
:1051D00033689D01F6D539E6216B03F07002013981
:1051E000B2EB011FA6D1616B03F4FE42B2EB012FBB
:1051F000A0D1A16B03F07842B2EBC16F9AD1E26B00
:10520000520803F4C001013AB1EB425F92D1226C23
:10521000520803F0C063013AB3EB426F8AD133689E
:1052200098013FF513AE336843F080733360F36841
:1052300043F08073F360FDF7F1F9044605E0FDF7F4
:10524000EDF9001B02283FF6BEAE33689901F6D592
:10525000FCE500BF8C809D0100100240002800F09A
:105260008180454A136803F007038B422DE9F04122
:105270000D4604460CD2136823F007030B4313605A
:10528000136803F007038B4202D00120BDE8F081D0
:105290002368DA073FD4990706D53849A0688A6899
:1052A00022F0F00202438A6033490A6802F00702E2
:1052B000AA4209D90A6822F007022A430A600A684A
:1052C00002F00702AA42E0D15A0706D52B49E0684E
:1052D0008A6822F4E06202438A601B0707D5274AE6
:1052E0002169936823F4605343EAC1039360FFF795
:1052F00049FC224A224C92682249C2F30312034617
:10530000A25C214802F01F02D340BDE8F0410068D2
:105310000B60FDF741B96268184B032A1B6823D064
:10532000022A1CD02ABB9E07AFD5144EB36823F0C7
:1053300003031343B360FDF771F941F28838074660
:1053400004E0FDF76BF9C01B404510D8B3686268F4
:1053500003F00C03B3EB820FF3D123689BE79F03A9
:10536000E3D492E7012070479B01DED48DE7032050
:105370008CE7580589D5D8E700200240001002408C
:105380002CBE01082000002028000020054B064A02
:105390009B680649C3F302230868D35C03F01F032C
:1053A000D8407047001002403CBE01082000002099
:1053B000054B064A9B680649C3F3C2230868D35CC1
:1053C00003F01F03D8407047001002403CBE0108A4
:1053D00020000020F8B5474BDA68920704460F46D4
:1053E00007D0DA68016802F003028A424BD001203C
:1053F000F8BD0068022857D003284ED00128F6D106
:105400001B689B07F4D53B4AD36823F0730318430A
:105410006368013B40EA0310D060364D2B6823F0EF
:1054200080632B60FDF7FAF8064604E0FDF7F6F816
:10543000831B022B3CD82B681A01F7D4002F39D1DB
:10544000D4E902132A69DB0622F0784243EA0123F9
:1054500022F4FE4213432B61264D2B6843F08063F8
:105460002B60FDF7DBF8064604E0FDF7D7F8831B59
:10547000022B1DD82B681B01F7D52B69A26913439A
:1054800000202B61F8BD002AB1D0DB684268C3F36D
:10549000021301339342AAD1BFE71A689503B2D42D
:1054A0001B685903A3D5AEE71B685E059FD5AAE725
:1054B0000320F8BD012F2B690DD06269A16823F08C
:1054C000C063520823F4FE43013A43EA012343EA4E
:1054D00042632B61C0E72269A16823F4C00352082C
:1054E00023F4FE43013A43EA012343EA42532B618A
:1054F000B2E700BF001002402DE9F043036813F447
:10550000006783B004460CD0C16BB1F5000F00F00A
:10551000FC80B1F5400F00F0FD80002900F0108103
:1055200001279E0359D59A4B9A6DD50040F1E18031
:105530004FF00008974D2B6843F480732B60FDF704
:105540006DF8064605E0FDF769F8831B022B00F2B3
:10555000EB802B68D805F6D5B7BB8D4DD5F89030CC
:1055600013F4407327D0226D9A4225D0D5F89010BD
:10557000D5F8903043F48033C5F89030D5F89030AA
:1055800023F48033C5F8903021F44073C907C5F87F
:10559000903040F1FA80FDF741F841F28839064633
:1055A00005E0FDF73BF8801B484500F2BD80D5F8CB
:1055B00090309B07F5D5236D7549D1F8902022F4E2
:1055C00040721343C1F89030B8F1000F04D0704A14
:1055D000936D23F0805393652368DE0708D56C49EB
:1055E000206AD1F8882022F003020243C1F8882003
:1055F0009D0708D56649606AD1F8882022F00C0220
:105600000243C1F88820980608D56149A06AD1F8FC
:10561000882022F440620243C1F88820990508D509
:105620005B49606BD1F8882022F440220243C1F824
:1056300088205A0508D55649A06BD1F8882022F455
:1056400040120243C1F888205E0608D55049E06A3E
:10565000D1F8882022F440520243C1F88820DD05A9
:1056600008D54B49206BD1F8882022F44032024300
:10567000C1F8882098040ED54549206CD1F88820BF
:1056800022F040620243B0F1006FC1F888204DD093
:10569000B0F1806F64D059030ED53D49606CD1F8EC
:1056A000882022F040620243B0F1006FC1F88820E8
:1056B00041D0B0F1806F5CD05A040BD53448A16C56
:1056C000D0F8882022F040520A43B1F1805FC0F840
:1056D00088203CD01B0408D52D4AE16CD2F88830D4
:1056E00023F080430B43C2F88830384603B0BDE84E
:1056F000F0839A6D42F080529A659B6D03F080535F
:105700000193019B4FF0010814E72148C26842F45D
:105710008032C2601E48D0F8882022F44002114333
:10572000C0F888100027FCE603274DE7CA6842F45A
:105730008012CA60AFE7CA6842F48012CA60BBE751
:105740000430FFF747FE0746E0B12368E9E602218F
:10575000201DFFF73FFE23680028BBD00746B9E7AE
:105760000121201DFFF736FE2368002893D007464D
:1057700091E70121201DFFF72DFE236800289BD013
:10578000074699E7E16B2368C4E7134614E700BFB7
:1057900000100240007000402DE9F04182B000236B
:1057A00014460D468DF803300646FCF737FF2C44AF
:1057B000271AFCF733FF324B34681B6803EB830373
:1057C000C3EBC3031B0D07FB03F380460193224683
:1057D000691C936810D113F4C06F09D0237BDBB22E
:1057E0008DF803309DF80330936813F4C06FF5D142
:1057F000002002B0BDE8F08113F4C06FF8D0237B25
:10580000DBB28DF803309DF80330FCF707FFA0EB07
:105810000800B84209D2019B3268002B019B03F1BA
:10582000FF3308BF00270193D2E7D6E900315A6859
:10583000B1F5827F22F0E0025A6014D0B26AB2F56C
:10584000005F07D00122002386F85D2086F85C30D7
:105850000320CEE71A6822F400521A601A6842F454
:1058600000521A60EEE7B268B2F5004F02D0B2F50E
:10587000806FE3D11A6822F040021A60DEE700BFB1
:10588000200000202DE9F04F85B000238DF807306F
:1058900001EB02090E4617460546FCF7BFFEDFF88E
:1058A0002081A9EB000AFCF7B9FED8F8003003EB21
:1058B0008303C3EBC3031B0D0AFB03F3834602936D
:1058C000701C2C6820D1A36813F4C05FFBD1FCF7D7
:1058D000A5FEA9EB0009FCF7A1FED8F80030C3F340
:1058E000CB3309FB03F380460393711C2C681FD153
:1058F000A3681A06FCD43A4631462846FFF74CFF07
:1059000048BB05B0BDE8F08FA36813F4C05FDED0DC
:10591000FCF784FEA0EB0B00504522D2029A029BBA
:10592000002A03F1FF3308BF4FF0000A0293C7E7D4
:10593000A3681B06DFD5FCF771FEA0EB0800484505
:105940000FD2039A039B002A03F1FF3308BF4FF0E5
:1059500000090393C9E72B6E43F0200303202B6655
:10596000CFE7D5E900315A68B1F5827F22F0E00235
:105970005A6019D0AA6AB2F5005F07D11A6822F4FA
:1059800000521A601A6842F400521A60012385F826
:105990005D302B6E002243F02003032085F85C204D
:1059A0002B6605B0BDE8F08FAA68B2F5004F02D0B3
:1059B000B2F5806FDED11A6822F040021A60D9E792
:1059C00020000020002874D02DE9F0410446406AF0
:1059D000002855D00023C4E9043394F85D30002238
:1059E000A26203F0FF02002B56D02168E268022376
:1059F00084F85D300D68B2F5E06F25F040050D606C
:105A000044D9B2F5706F56D1A36A4FF0000C03F47D
:105A10000055A368A669276A02F4706E626803F4F1
:105A2000044302F482721A43236903F002031A4307
:105A3000636903F001031A43636B03F0080343EA4D
:105A40000E0EE36903F0380806F40073134307F001
:105A5000800743EA08033B432B430B60330C03F0FE
:105A6000040300F010004EEA0303034343EA0C036F
:105A70004B6000200123206684F85D30BDE8F08192
:105A80006368B3F5827FA8D0E061A6E70BD04FF43E
:105A9000805C0025A562BCE7204684F85C20FCF70A
:105AA000EFFB606AA1E7A36A4FF4805C03F4005542
:105AB000AFE7012070474FF0000CEAE72DE9F04115
:105AC000044690F85C00012882B078D01D4601237E
:105AD00084F85C3088461746FCF7A0FD94F85D30EA
