:020000040800F2
:1000000000000120F5240008292400082D24000800
:1000100031240008352400083924000800000000BD
:100020000000000000000000000000003D24000867
:10003000412400080000000045240008492400086D
:1000400045250008452500084525000845250008E8
:1000500045250008452500084525000845250008D8
:100060004525000845250008452500084D240008C1
:1000700045250008592400084525000845250008A5
:100080004525000845250008652400084525000889
:100090004525000845250008452500084525000898
:1000A000452500087124000845250008452500085D
:1000B0007D24000800000000000000004525000825
:1000C0004525000800000000000000008924000809
:1000D000000000004525000845250008000000003C
:1000E00095240008452500080000000000000000DD
:1000F0000000000000000000000000000000000000
:10010000000000000000000000000000452500087D
:1001100000000000000000004525000845250008FB
:100120004525000845250008452500084525000807
:10013000452500080000000000000000000000004D
:1001400045250008452500084525000845250008E7
:1001500045250008452500084525000845250008D7
:100160004525000845250008452500080000000039
:10017000452500084525000800000000000000009B
:0C0180004525000845250008452500081D
:1001900010B5054C237833B9044B13B10448AFF3C1
:1001A00000800123237010BD5807002000000000CC
:1001B000E47C010808B5034B1BB103490348AFF3C6
:1001C000008008BD000000005C070020E47C0108FE
:1001D000034613F8012B002AFBD1181A0138704787
:1001E00001F0FF01102A2BDB10F0070F08D010F8E8
:1001F000013B013A8B422DD010F0070F42B3F6D1EC
:10020000F0B441EA012141EA014122F007047FF004
:1002100000070023F0E80256083C85EA010586EA5B
:10022000010685FA47F5A3FA87F586FA47F6A5FA97
:1002300087F68EB9EED1F0BC01F0FF0102F00702A3
:1002400032B110F8013B013A83EA010313B1F8D14E
:100250000020704701387047002D06BF354603382F
:10026000073815F0010F07D1013015F4807F02BF68
:10027000013015F4C03F0130F0BC0138704700BFB9
:1002800081F0004102E000BF83F0004330B54FEA47
:1002900041044FEA430594EA050F08BF90EA020FB4
:1002A0001FBF54EA000C55EA020C7FEA645C7FEA47
:1002B000655C00F0E2804FEA5454D4EB5555B8BF6A
:1002C0006D420CDD2C4480EA020281EA030382EADB
:1002D000000083EA010180EA020281EA0303362D6D
:1002E00088BF30BD11F0004F4FEA01314FF4801C40
:1002F0004CEA113102D0404261EB410113F0004F52
:100300004FEA03334CEA133302D0524263EB430308
:1003100094EA050F00F0A780A4F10104D5F1200EA6
:100320000DDB02FA0EFC22FA05F2801841F1000101
:1003300003FA0EF2801843FA05F359410EE0A5F1D5
:1003400020050EF1200E012A03FA0EFC28BF4CF006
:10035000020C43FA05F3C01851EBE37101F00045BC
:1003600007D54FF0000EDCF1000C7EEB00006EEBC9
:100370000101B1F5801F1BD3B1F5001F0CD3490853
:100380005FEA30004FEA3C0C04F101044FEA4452AA
:1003900012F5800F80F09A80BCF1004F08BF5FEA31
:1003A000500C50F1000041EB045141EA050130BD11
:1003B0005FEA4C0C404141EB0101013C28BFB1F523
:1003C000801FE9D291F0000F04BF01460020B1FA6E
:1003D00081F308BF2033A3F10B03B3F120020CDA41
:1003E0000C3208DD02F1140CC2F10C0201FA0CF01F
:1003F00021FA02F10CE002F11402D8BFC2F1200C84
:1004000001FA02F120FA0CFCDCBF41EA0C01904039
:10041000E41AA2BF01EB0451294330BD6FEA040482
:100420001F3C1CDA0C340EDC04F11404C4F120026D
:1004300020FA04F001FA02F340EA030021FA04F37F
:1004400045EA030130BDC4F10C04C4F1200220FAD6
:1004500002F001FA04F340EA0300294630BD21FA14
:1004600004F0294630BD94F0000F83F4801306BFDA
:1004700081F480110134013D4EE77FEA645C18BFCE
:100480007FEA655C29D094EA050F08BF90EA020F65
:1004900005D054EA000C04BF1946104630BD91EA5D
:1004A000030F1EBF0021002030BD5FEA545C05D160
:1004B0004000494128BF41F0004130BD14F580049F
:1004C0003CBF01F5801130BD01F0004545F0FE4113
:1004D00041F470014FF0000030BD7FEA645C1ABF48
:1004E000194610467FEA655C1CBF0B46024650EA7F
:1004F000013406BF52EA033591EA030F41F40021AB
:1005000030BD00BF90F0000F04BF0021704730B530
:100510004FF4806404F132044FF000054FF0000105
:1005200050E700BF90F0000F04BF0021704730B5C6
:100530004FF4806404F1320410F0004548BF40429B
:100540004FF000013EE700BF42004FEAE2014FEAF0
:1005500031014FEA02701FBF12F07F4393F07F4FCB
:1005600081F06051704732F07F4208BF704793F0CE
:100570007F4F04BF41F40021704730B54FF46074E1
:1005800001F0004521F000411CE700BF50EA0102E4
:1005900008BF704730B54FF000050AE050EA01028D
:1005A00008BF704730B511F0004502D5404261EBFD
:1005B00041014FF4806404F132045FEA915C3FF43E
:1005C000D8AE4FF003025FEADC0C18BF03325FEADB
:1005D000DC0C18BF033202EBDC02C2F1200300FA8C
:1005E00003FC20FA02F001FA03FE40EA0E0021FAB1
:1005F00002F11444BDE600BF70B54FF0FF0C4CF49F
:10060000E06C1CEA11541DBF1CEA135594EA0C0F50
:1006100095EA0C0F00F0DEF82C4481EA030621EA8B
:100620004C5123EA4C5350EA013518BF52EA0335C6
:1006300041F4801143F4801338D0A0FB02CE4FF078
:100640000005E1FB02E506F00042E0FB03E54FF0A8
:100650000006E1FB03569CF0000F18BF4EF0010EA0
:10066000A4F1FF04B6F5007F64F5407404D25FEA9C
:100670004E0E6D4146EB060642EAC62141EA55514F
:100680004FEAC52040EA5E504FEACE2EB4F1FD0C91
:1006900088BFBCF5E06F1ED8BEF1004F08BF5FEA0F
:1006A000500E50F1000041EB045170BD06F00046C1
:1006B00046EA010140EA020081EA0301B4EB5C046E
:1006C000C2BFD4EB0C0541EA045170BD41F4801166
:1006D0004FF0000E013C00F3AB8014F1360FDEBF8B
:1006E000002001F0004170BDC4F10004203C35DA67
:1006F0000C341BDC04F11404C4F1200500FA05F3EA
:1007000020FA04F001FA05F240EA020001F000428A
:1007100021F0004110EBD37021FA04F642EB060100
:100720005EEA430E08BF20EAD37070BDC4F10C042A
:10073000C4F1200500FA04F320FA05F001FA04F2EE
:1007400040EA020001F0004110EBD37041F10001DA
:100750005EEA430E08BF20EAD37070BDC4F12005E5
:1007600000FA05F24EEA020E20FA04F301FA05F24D
:1007700043EA020321FA04F001F0004121FA04F2F5
:1007800020EA020000EBD3705EEA430E08BF20EAC5
:10079000D37070BD94F0000F0FD101F000464000FF
:1007A00041EB010111F4801F08BF013CF7D041EA81
:1007B000060195F0000F18BF704703F00046520085
:1007C00043EB030313F4801F08BF013DF7D043EA56
:1007D0000603704794EA0C0F0CEA135518BF95EA0C
:1007E0000C0F0CD050EA410618BF52EA4306D1D193
:1007F00081EA030101F000414FF0000070BD50EAB2
:10080000410606BF1046194652EA430619D094EA3B
:100810000C0F02D150EA013613D195EA0C0F05D125
:1008200052EA03361CBF104619460AD181EA030179
:1008300001F0004141F0FE4141F470014FF0000031
:1008400070BD41F0FE4141F4780170BD70B54FF0CC
:10085000FF0C4CF4E06C1CEA11541DBF1CEA13554C
:1008600094EA0C0F95EA0C0F00F0A7F8A4EB05042E
:1008700081EA030E52EA03354FEA013100F0888025
:100880004FEA03334FF0805545EA131343EA1263EE
:100890004FEA022245EA111545EA10654FEA0026A3
:1008A0000EF000419D4208BF964244F1FD0404F55C
:1008B000407402D25B084FEA3202B61A65EB0305B8
:1008C0005B084FEA32024FF480104FF4002CB6EB75
:1008D000020E75EB030E22BFB61A754640EA0C00F5
:1008E0005B084FEA3202B6EB020E75EB030E22BF35
:1008F000B61A754640EA5C005B084FEA3202B6EB76
:10090000020E75EB030E22BFB61A754640EA9C0034
:100910005B084FEA3202B6EB020E75EB030E22BF04
:10092000B61A754640EADC0055EA060E18D04FEAC2
:10093000051545EA16754FEA06164FEAC30343EA62
:1009400052734FEAC2025FEA1C1CC0D111F4801F2F
:100950000BD141EA00014FF000004FF0004CB6E728
:1009600011F4801F04BF01430020B4F1FD0C88BFC7
:10097000BCF5E06F3FF6AFAEB5EB030C04BFB6EBD2
:10098000020C5FEA500C50F1000041EB045170BDC5
:100990000EF0004E4EEA113114EB5C04C2BFD4EBF2
:1009A0000C0541EA045170BD41F480114FF0000E76
:1009B000013C90E645EA060E8DE60CEA135594EAF2
:1009C0000C0F08BF95EA0C0F3FF43BAF94EA0C0FF5
:1009D0000AD150EA01347FF434AF95EA0C0F7FF46A
:1009E00025AF104619462CE795EA0C0F06D152EABE
:1009F00003353FF4FDAE1046194622E750EA4106A2
:100A000018BF52EA43067FF4C5AE50EA41047FF4B2
:100A10000DAF52EA43057FF4EBAE12E74FF0FF3C17
:100A200006E000BF4FF0010C02E000BF4FF0010CE8
:100A30004DF804CD4FEA410C7FEA6C5C4FEA430C61
:100A400018BF7FEA6C5C1BD001B050EA410C0CBFB0
:100A500052EA430C91EA030F02BF90EA020F002012
:100A6000704710F1000F91EA030F58BF994208BF79
:100A700090422CBFD8176FEAE37040F00100704736
:100A80004FEA410C7FEA6C5C02D150EA013C07D18D
:100A90004FEA430C7FEA6C5CD6D152EA033CD3D0D8
:100AA0005DF8040B704700BF8446104662468C46D2
:100AB0001946634600E000BF01B5FFF7B7FF002805
:100AC00048BF10F1000F01BD4DF808EDFFF7F4FF2E
:100AD0000CBF012000205DF808FB00BF4DF808EDB9
:100AE000FFF7EAFF34BF012000205DF808FB00BFDC
:100AF0004DF808EDFFF7E0FF94BF012000205DF8FE
:100B000008FB00BF4DF808EDFFF7CEFF94BF0120B2
:100B100000205DF808FB00BF4DF808EDFFF7C4FFAB
:100B200034BF012000205DF808FB00BF4FEA410CF4
:100B30007FEA6C5C02D150EA013C0AD14FEA430CD7
:100B40007FEA6C5C02D152EA033C02D14FF0000014
:100B500070474FF0010070474FEA410212F5001252
:100B600015D211D56FF47873B3EB625212D94FEAF4
:100B7000C12343F0004343EA505311F0004F23FADE
:100B800002F018BF404270474FF00000704750EA33
:100B9000013005D111F0004008BF6FF000407047F0
:100BA0004FF00000704700BF4A0011D212F500124A
:100BB00011D20DD56FF47873B3EB62520ED44FEAB5
:100BC000C12343F0004343EA505323FA02F0704735
:100BD0004FF00000704750EA013002D14FF0FF3073
:100BE00070474FF0000070474FEA4102B2F1E04316
:100BF00024BFB3F5001CDCF1FE5C0DD901F0004C04
:100C00004FEAC0024CEA5070B2F1004F40EB830053
:100C100008BF20F00100704711F0804F21D113F17F
:100C20003872BCBF01F00040704741F480114FEAB8
:100C30005252C2F11802C2F1200C10FA0CF320FA41
:100C400002F018BF40F001004FEAC1234FEAD3235E
:100C500003FA0CFC40EA0C0023FA02F34FEA4303C8
:100C6000CCE77FEA625307D150EA01331EBF4FF051
:100C7000FE4040F44000704701F0004040F0FE406C
:100C800040F40000704700BF53B94AB9002908BFBB
:100C900000281CBF4FF0FF314FF0FF3000F074B957
:100CA000ADF1080C6DE904CE00F006F8DDF804E0C3
:100CB000DDE9022304B070472DE9F047089D0446A2
:100CC0008E46002B4DD18A42944669D9B2FA82F2FF
:100CD00052B101FA02F3C2F1200120FA01F10CFA3B
:100CE00002FC41EA030E94404FEA1C48210CBEFB73
:100CF000F8F61FFA8CF708FB16E341EA034306FBFC
:100D000007F199420AD91CEB030306F1FF3080F08A
:100D10001F81994240F21C81023E63445B1AA4B2D7
:100D2000B3FBF8F008FB103344EA034400FB07F779
:100D3000A7420AD91CEB040400F1FF3380F00A81BA
:100D4000A74240F207816444023840EA0640E41BAF
:100D500000261DB1D4400023C5E900433146BDE85B
:100D6000F0878B4209D9002D00F0EF800026C5E9FD
:100D7000000130463146BDE8F087B3FA83F6002E15
:100D80004AD18B4202D3824200F2F980841A61EB8D
:100D9000030301209E46002DE0D0C5E9004EDDE7AB
:100DA00002B9FFDEB2FA82F2002A40F09280A1EB93
:100DB0000C014FEA1C471FFA8CFE0126200CB1FBE8
:100DC000F7F307FB131140EA01410EFB03F08842E1
:100DD00008D91CEB010103F1FF3802D2884200F26E
:100DE000CB804346091AA4B2B1FBF7F007FB101100
:100DF00044EA01440EFB00FEA64508D91CEB04049E
:100E000000F1FF3102D2A64500F2BB800846A4EBF8
:100E10000E0440EA03409CE7C6F12007B34022FAE3
:100E200007FC4CEA030C20FA07F401FA06F31C4312
:100E3000F9404FEA1C4900FA06F3B1FBF9F8200C1F
:100E40001FFA8CFE09FB181140EA014108FB0EF065
:100E5000884202FA06F20BD91CEB010108F1FF3AB5
:100E600080F08880884240F28580A8F102086144C1
:100E7000091AA4B2B1FBF9F009FB101144EA0141CF
:100E800000FB0EFE8E4508D91CEB010100F1FF347A
:100E90006CD28E456AD90238614440EA0840A0FB12
:100EA0000294A1EB0E01A142C846A64656D353D0E8
:100EB0005DB1B3EB080261EB0E0101FA07F722FA0C
:100EC00006F3F1401F43C5E9007100263146BDE835
:100ED000F087C2F12003D8400CFA02FC21FA03F398
:100EE000914001434FEA1C471FFA8CFEB3FBF7F019
:100EF00007FB10360B0C43EA064300FB0EF69E423E
:100F000004FA02F408D91CEB030300F1FF382FD2D6
:100F10009E422DD9023863449B1B89B2B3FBF7F67E
:100F200007FB163341EA034106FB0EF38B4208D957
:100F30001CEB010106F1FF3816D28B4214D9023E98
:100F40006144C91A46EA004638E72E46284605E7B6
:100F50000646E3E61846F8E64B45A9D2B9EB020887
:100F600064EB0C0E0138A3E74646EAE7204694E717
:100F70004046D1E7D0467BE7023B614432E730464A
:100F800009E76444023842E7704700BF08B50846E5
:100F9000114613F069FDBDE80840014813F04EBC4E
:100FA000B07D0108000000004368B3B92DE9F047A7
:100FB000036823F00043013B2DED048B0A2B0DD871
:100FC000DFE813F0F60024010C0037010C000C00E0
:100FD0000C000C000C000C004A017047DFF8A4A3C1
:100FE000DAED005ADAED017ADAED028A9AED038A37
:100FF000D34DD44C28EE888A17EE900AA5EEA78A26
:10100000FFF7A2FA804618EE900A8946FFF79CFA8D
:1010100002460B46FFF7F0FA424606460F464B469D
:1010200040464946FFF7E8FA02460B463046394645
:10103000FFF72CF902460B46FFF728F902460B464C
:101040000020C149FFF720F978EE087A41EC190B2E
:1010500017EE900AFFF778FAB0EE491AF0EE691A27
:1010600041EC100B15F07EFE51EC100BFFF7BCFDB0
:10107000DAED027A9AED018A9AED007ADAED038AC6
:1010800027EE888A03462B6017EE900AA7EE288A7F
:10109000FFF75AFA064618EE900A0F46FFF754FA81
:1010A00002460B46FFF7A8FA3246804689463B4681
:1010B00030463946FFF7A0FA02460B4640464946FD
:1010C000FFF7E4F802460B46FFF7E0F802460B464E
:1010D00000209D49FFF7D8F878EE087A02460B46C3
:1010E00017EE900A43EC182BFFF72EFAB0EE481AD1
:1010F000F0EE681A41EC100B15F034FE51EC100BB9
:10110000FFF772FD914B206095ED007AD3ED007AE8
:101110008F4B37EE677AD3ED006A85ED007AD4ED18
:10112000007A77EEE67AC4ED007A2868FFF70CFAC9
:1011300075A3D3E90023FFF7DBFC002800F0BA8099
:10114000844E002333602068FFF7FEF970A3D3E9D3
:101150000023FFF7CDFC002800F09F800023736080
:1011600028687D4D80F00040FFF7EEF96AA3D3E9CF
:101170000023FFF741FA794B0022FFF73DFAFFF712
:1011800033FD286094ED007ADFED757A67EE277AFB
:1011900017EE900AFFF7D8F961A3D3E90023FFF710
:1011A0002BFAFFF721FDBDEC048B6860BDE8F087EA
:1011B000DFF8D0A190ED046AD0ED056A90ED067AD3
:1011C000DAED005ADAED017ADAED028A9AED038A55
:1011D000644B654990F8282083ED006AC3ED016AED
:1011E00083ED027A0A70614B614983ED006AC3EDB9
:1011F000016A83ED027A0A705E4B5F4983ED006AF3
:10120000C3ED016A83ED027A0A70F1E6DFF874A19A
:1012100090ED046AD0ED056A90ED067A90F82820EA
:10122000DAED005ADAED017ADAED028A9AED038AF4
:10123000E2E7DFF850A190ED046AD0ED056A90ED89
:10124000067A90F82820DAED005ADAED017ADAED24
:10125000028A9AED038AC6E7D0ED087ADFF824A166
:1012600090ED046AD0ED056A90ED067A90ED078A5C
:10127000424A8AED006AFCEEE77AF0EE478A17EE02
:10128000903AF0EE465AF0EE667ACAED016A8AEDBF
:10129000027A8AED038A13709AE72068FFF754F9FF
:1012A00021A3D3E90023FFF72DFC90B140F6FF7393
:1012B000736055E72868FFF747F91DA3D3E90023BA
:1012C000FFF720FC00285FD0224E40F6FF7333600A
:1012D00039E72068FFF738F913A3D3E90023FEF7B5
:1012E000D5FF274B0022FFF787F90DA3D3E9002391
:1012F000FFF782F910A3D3E90023FFF77DF9FFF789
:1013000053FC70602CE700BF182D4454FB21F9BF3B
:10131000182D4454FB2109C083C8C96D305FE43FD8
:1013200083C8C96D305FD43F182D4454FB21094058
:10133000182D4454FB21F93F0000000000FEAF408F
:1013400090C8002074C800200000F03F94C800201E
:1013500078C8002098070020A00700200080564091
:10136000000034437407002084070020F80900209F
:101370008507002078C70020860700208707002007
:101380000000E03F7CC800202868114EFFF7DCF821
:1013900009A3D3E90023FEF779FF09A3D3E90023CA
:1013A000FFF72AF908A3D3E90023FFF725F9FFF790
:1013B000FBFB3060C7E600BF182D4454FB21F93F0A
:1013C0000000000000FEAF4083C8C96D305FD43F0D
:1013D0009807002008B503494FF0FF32032010F0B2
:1013E0009FFFFEE7B47D01080A4A53684BB1DB6AF0
:1013F00023B1014610684CF2503218476FF00100DB
:10140000704710B5044B054A054840F27F1112F0B1
:101410002FFB00BF90C10020C07D0108FC7F0108A8
:10142000D07D0108094A536843B19B6A1BB101464C
:101430001068012218476FF00100704710B5044B87
:10144000044A054840F2511112F012FB90C10020ED
:10145000C07D0108E47F0108D07D01080000000084
:1014600000B599B04422002106A812F096FB002393
:101470004FF40070CDE90033CDE90233049303F05B
:101480002FFA08B172B6FEE79FED177B8DED107B4A
:101490009FED177B8DED127B9FED177B02234FF4A1
:1014A0008071102206A8069316938DED147B099186
:1014B0000A9203F0F7FA034608B172B6FEE79FED11
:1014C000107B8DED007B9FED107B042168468DED38
:1014D000027B049303F0F8FD08B172B6FEE719B081
:1014E0005DF804FBAFF30080020000000200000082
:1014F000010000000A0000000700000002000000D8
:101500000F000000030000000000000000000000C9
:101510002DE9F04FADF5397D00248DF88740ADF809
:101520008840ADF88A40ADF88C40ADF88E4001F0AF
:1015300031F8FFF795FFCDE92C44CDE92E44B64DA7
:101540003094EB6CDFF800A343F00403EB64EB6C26
:1015500003F004032593259BEB6C43F00103EB643C
:10156000EB6C03F001032693269BEB6C43F0020324
:10157000EB64EB6C03F00203279340F281114FF010
:1015800090402246279B02F053F9A448224643216B
:1015900002F04EF94FF480424FF48813A0482E9485
:1015A0002CA9CDE92C2302F067F84FF40042002368
:1015B0009B482E942CA9CDE92C23012602F05CF83F
:1015C0000327812201232CA94FF09040CDE92E67FB
:1015D000CDE92C2302F050F8412201238F482CA999
:1015E000CDE92E67CDE92C2302F046F80222012333
:1015F000CDE92C238948002203232CA9CDE92E23F1
:10160000002602F039F800274FF4807201232CA93C
:101610004FF09040CDE92C23CDE92E6702F02CF855
:10162000002380227D482E942CA9CDE92C2302F0A2
:1016300023F822462146282001F0A0FD282001F0B1
:10164000DBFD78484FF4E133C0E900A30C23C0E987
:101650000244C0E90644C0E908440461436105F05E
:10166000F9FA08B172B6FEE76F4CDFF8E08184F852
:1016700020004FF40023C4E90083042363614FF486
:10168000807323830323CDE92C00CDE92E00CDE91F
:101690003000C4E90A67C4E90200012684F8380072
:1016A000E36120464FF48053266184F83060636321
:1016B00000F0A4FF08B172B6FEE75C4A0623CDE94C
:1016C0002C2307227F23CDE92E232CA904220023DB
:1016D0002046CDE9302301F0C1F908B172B6FEE72A
:1016E000534A0C232CA92046CDE92C2301F0B6F94E
:1016F00008B172B6FEE746A3D3E9002320462CA921
:10170000CDE92C2301F0AAF908B172B6FEE7494CE5
:10171000DFF83CE1484B2062C4E90206C4E904005A
:10172000C4E906002046C4E900E302F051FB01468B
:1017300008B172B6FEE7204603F074F8014608B11E
:1017400072B6FEE7204603F097F8044608B172B679
:10175000FEE7AB6C43F00103AB64AB6C374D03F0B9
:1017600001030246014624930B20249B01F006FD51
:101770000B2001F041FD224621460D2001F0FEFC28
:101780000D2001F039FDDFF8CCC02E944F23C5E9C0
:1017900000C328464FF6FF73EB60CDE92C44AC60E4
:1017A000AC6104F057FC034608B172B6FEE7284668
:1017B0002CA92C932E9304F09FFE08B172B6FEE77D
:1017C0001F4C242200212CA812F0E7F91D4B2360A6
:1017D000204601F039FD024608B172B6FEE7002648
:1017E0000027CDE92C673090022600272CA920463F
:1017F000CDE92E6701F084FD08B172B6FEE7204600
:1018000010222CA901F07CFD30B372B6FEE700BFB8
:101810000008302E120000000010024000040048B2
:1018200000080048A80C0020080A002040002019E9
:1018300000018021100B0020912970005C0C002019
:101840006C0A002000740040004400400000045076
:1018500000540040001000402F4C304BA060CDE9F8
:101860002C00CDE92E00CDE929002061A0612B904C
:10187000E3604FF080474F232046C4E9007304F033
:10188000E9FB08B172B6FEE74FF480532CA920465D
:101890002C9304F0C1FC034608B172B6FEE7204663
:1018A00029A929932B9304F027FE034608B172B6A9
:1018B000FEE71B481B498360C0E90433C0E90833D5
:1018C000836203630823C36143634FF48273C0E9F7
:1018D00000134FF4E063C3604FF400738361072388
:1018E000C36203F0A5FF044608B172B6FEE705F037
:1018F00019FA0D480D4A846049F63F43C0E90023B8
:1019000040F2CF73C0E904448461C36004F0A2FBD9
:10191000044668B172B6FEE7100C00209F860100F5
:10192000600B002000300140C40B00200044014047
:10193000B94800F0F5FA10F07BFD11F005FB10F04E
:101940007FFD4FF47A7000F047FEB4492CA80122C5
:1019500007F05EF9002840F05482B14E0123337045
:10196000B048B14C12F06AFFB049062010F0C4FC38
:10197000AF4812F063FF002320888DF8A43029A916
:1019800011F036FF0546022000F026FE002D40F043
:101990004282A84812F052FF208811F017FD00285B
:1019A00040F03982A44812F049FF0221208811F04A
:1019B0005DFE4FF4FA71208811F096FD20884FF4F7
:1019C000FA7111F0EDFE9D489D4D12F037FF208811
:1019D00011F05EFD9B4812F031FF9B4812F02EFF84
:1019E0000227FA23CDE9287311F0A6FB43F2D27344
:1019F0000146964A00932846954B09F075F94FF039
:101A00000008284609F0EEF828ABCDF80080052242
:101A10000121284608F06CFF013000F0F081CDF87C
:101A2000008029AB05220421284608F061FF01301F
:101A300000F0E581012105F130000EF0D9FF012011
:101A4000FFF7D2FC013000F0DA810420FFF7CCFC74
:101A5000013000F0D4813846FFF7C6FC013000F0B9
:101A6000CE810B20FFF7C0FC013000F0C8810120BF
:101A7000FFF7D8FC013000F0C2810420FFF7D2FC50
:101A8000013000F0BC813846FFF7CCFC013000F09B
:101A9000B6810B20FFF7C6FC013000F0B0816D4825
:101AA00004F050FB6C4804F089FB6C4804F086FBA2
:101AB00000216B4801F0DEFB1021694801F0DAFBE0
:101AC0007F21684801F0F2FA67496648032201F075
:101AD0005FFA664812F0B2FE3378002B32D0644FC2
:101AE000DFF8DC91DFF8DC81384611F029FB614931
:101AF0003A88614BA9F800207A680A60BA681A60CF
:101B00003B7B88F80030208811F0C6FCB9F9001042
:101B1000208811F08BFE208811F0BAFC57495848F4
:101B2000012207F0C7F857495748012207F0C2F8C9
:101B300098F8000010F040FF5449514808F03AF975
:101B400011F048FB5248DFF8808108F0EFF9514B63
:101B5000514A1B7812780092504A127801920C2157
:101B60004F4A404612F038FF11F002FA002840F0C8
:101B70000181474BD3F8E43098474A4B1B7803F078
:101B8000FF07002B40F0D58020880DF1870111F070
:101B900087FC9DF88730012B00F00F816B68002BCC
:101BA00000F005815B6923B128689847013000F097
:101BB00026813D4B3D4FD3F800903D4BB868D3F89C
:101BC00000A03C4BD3F800B0FEF7BEFCCDE91E01EF
:101BD0007868FEF7B9FCCDE91C013868364FFEF78E
:101BE000B3FCCDE91A01B868FEF7AEFCCDE91801E7
:101BF0007868FEF7A9FCCDE9160138682F4FFEF78B
:101C0000A3FCCDE91401B868FEF79EFCCDE91201F2
:101C10007868FEF799FC59E0A80C00209CBA0108EE
:101C20008CC800203C7E0108120000208D0F0008A7
:101C3000507E01086C7E0108947E0108A87E010890
:101C400090C10020BC7E0108D07E0108F0B70108D9
:101C50001C8001085C0C0020100C0020C40B00202C
:101C60006C0A0020080A00208C070020E87E01088A
:101C7000D809002094C8002078C80020047F0108FB
:101C8000A80700200C7F010898C800202C0D002018
:101C900088C700205C0B002070C800208DC8002081
:101CA000147F01088807002074C8002078C700202E
:101CB00090C80020F4090020F809002074070020D3
:101CC000EC09002011000020C8CA0020CDE9100155
:101CD0003868544FFEF738FCCDE90E01F868FEF77E
:101CE00033FCCDE90C01B868FEF72EFCCDE90A0102
:101CF0007868FEF729FCCDE908013868FEF724FC76
:101D0000CDE906015846FEF71FFCCDE90401504617
:101D1000FEF71AFCCDE902014846FEF715FC424ADF
:101D2000CDE900014148AA2112F056FE404B1B7834
:101D3000DBB93378002B3FF40AAF3E4B1B78002B06
:101D40003FF405AFB42200213B4811F026FF414685
:101D5000B422394812F074FE34493748B42212F0E4
:101D60006FFE354811F0A4FAF1E63049334812F01D
:101D7000DFFCDEE70DF18A0122A811F005F9304BF6
:101D800001901B78BDF88A10BDF88800009323AA43
:101D90000DF18E0308F042F8BDF88E10BDF88C00EE
:101DA00008F052F80146274808F048F9E1E6264BCA
:101DB000264A2748C92111F05BFEDFF8B49020883D
:101DC0008DF88770494611F023FDB9F800309FED7A
:101DD000217A214A07EE903AF8EE676AB3F5FA6F76
:101DE000C6EE877AC2ED007A19D21C4AC3EB0333E0
:101DF00093FBF2F303F6FF73194A1360CEE6FFF785
:101E0000E9FA1848184E12F019FD0D4B3470187885
:101E100010F0D2FDA4E5154812F010FDD3E53B46C5
:101E2000EAE700BF7CC80020287F0108D4CA002050
:101E300010000020C0C60020C4C60020D07F0108CA
:101E40001100002088C70020C07D0108D47F010850
:101E5000D07D010800007A44F409002030F8FFFF2B
:101E6000F0090020247E01088CC800207C7E010837
:101E7000EA0900200368B3F1804F1DD01E4A934247
:101E800000D070471D4A13780133DBB23C2B13702E
:101E90001B4B0AD01A783C2AF3D11A4A0021197038
:101EA00013780133DBB21370EBE7002111701A785D
:101EB0000132D2B21A70EDE710B5134C2378DB4330
:101EC00003F001034FF480714FF09040237001F054
:101ED000B5FC23780D490E48DBB2002251F82330BF
:101EE000102101F0F5F90B4B09481B680022BDE8F1
:101EF0001040114601F0ECB9004401408DC80020AB
:101F000070C800205C0B0020E80900209807002022
:101F10006C0A0020F0090020704700BF72B6FEE78F
:101F200030B4064B06491D68044600230C60A868BF
:101F3000022230BC194612F089BC00BF880500207F
:101F400080CB0020022801D80120704708B511F08D
:101F5000ADFD09230360002008BD00BF0138012842
:101F600010B50CD8094B1446186892B24FF0FF33E5
:101F700004F0B2FD002818BF0524204610BD11F062
:101F800095FD092303604FF0FF34F6E780CB002076
:101F9000022801D80020704708B511F087FD0923F9
:101FA00003604FF0FF3008BD08B511F07FFD092335
:101FB00003604FF0FF3008BD08B558B9094A4FF02B
:101FC000FF331068012204F0D5FA00280CBF01206D
:101FD000052008BD11F06AFD092303604FF0FF30B2
:101FE00008BD00BF80CB0020022808B504D84FF4FC
:101FF00000534B60002008BD11F058FD0923036019
:10200000002008BD0A4B1A6E42F001021A661A6ED1
:1020100082B002F001020092009A9A6D42F0805262
:102020009A659B6D03F080530193019B02B070474A
:102030000010024070B504469EB00021542208A84A
:10204000CDE90211CDE90411069111F0A6FD324B44
:1020500022689A4201D01EB070BD4FF080534FF4F9
:1020600080421A930223CDE9082301220823CDE9F7
:102070000A2307220223CDE90C2308A802224FF0ED
:102080008073CDE90E2303F06DF900283ED1234B78
:10209000234DDA6C42F40052DA64DA6C02F4005236
:1020A0000092009ADA6C42F00102DA64DB6C03F011
:1020B0000103002601934A224FF090400B2302A90E
:1020C000CDE902230496019B01F0D6FA154A80233C
:1020D000C5E900262B614FF400724FF40063C5E997
:1020E000052328462023C5E90266C5E9073601F025
:1020F00095F970B9002211461220E564AC6201F036
:102100003DF8122001F078F81EB070BDFFF706FF11
:10211000BDE7FFF703FFEDE70000045000100240A9
:10212000800A00200800024000B51B4A016889B0FF
:1021300000239142CDE90233CDE90433069302D066
:1021400009B05DF804FB03F1804303F504339FED10
:10215000107B9A6D42F000529A659A6D02F000521F
:102160000092009ADA6C42F00102DA64DB6C03F050
:102170000103019302A94FF090408DED027B019B7A
:1021800001F07AFA09B05DF804FB00BFAFF30080FC
:102190003000000003000000007400400000000058
:1021A00010B504469CB00021542207A8CDE90211C5
:1021B000CDE90411069111F0F0FC1B4B22689A4204
:1021C00001D01CB010BD402307A8079303F0CAF844
:1021D00018BB164CE36C43F00103E364E36C9FED22
:1021E000107B03F0010300930423009A069300225E
:1021F000032302A94FF09040CDE904238DED027B2B
:1022000001F03AFAA36D43F40013A365A36D03F440
:1022100000130193019B1CB010BDFFF77FFED8E7B0
:1022200000060000120000000054004000100240B0
:1022300070B5284B026888B000249A42CDE9024468
:10224000CDE90444069401D008B070BD03F56043A5
:1022500005461A6E2048214E42F480521A661A6EC4
:1022600002F480520092009ADA6C42F00202DA64C0
:10227000DB6C03F00203019338220223CDE9022331
:1022800001220323CDE9042302A905230693019B20
:1022900001F0F2F9124A0123C6E900233046102268
:1022A0008023C6E90224C6E90544C6E90744336130
:1022B00001F0B4F858B90022114623206E65B562CA
:1022C00000F05CFF232000F097FF08B070BDFFF71F
:1022D00025FEF0E70030014000040048C80A002055
:1022E0003000024000B50368B3F1804F85B02AD0BA
:1022F000204A934205D0204A93420FD005B05DF8A2
:1023000004FB1E4B9A6D42F010029A659B6D03F020
:1023100010030293029B05B05DF804FB174B196E86
:1023200041F4003119661B6E002203F4003303935D
:1023300019201146039B00F021FF192005B05DF81C
:1023400004EB00F059BF03F504330022996D41F00E
:10235000010199659B6D03F0010301931C20114657
:10236000019B00F00BFF1C2005B05DF804EB00F0B2
:1023700043BF00BF00100040004401400010024075
:1023800030B504469DB00021542207A8CDE90211C2
:10239000CDE90411069111F000FC214B22689A420C
:1023A00001D01DB030BD022307A8079302F0DAFF69
:1023B000002831D11B4B9A6D42F400329A659A6D18
:1023C00002F400320092009ADA6C42F00102DA6400
:1023D000DB6C0420022103F00103CDE9020101932B
:1023E0000024032502A94FF0904007230693CDE96E
:1023F0000445019B01F040F94FF400420223CDE96E
:10240000022302A903234FF09040CDE9044506932F
:1024100001F032F91DB030BDFFF780FDCAE700BF03
:102420000044004000100240FEE700BFFEE700BF8E
:10243000FEE700BFFEE700BFFEE700BF704700BF3A
:10244000704700BF704700BF00F0B4B8014801F00A
:10245000C5B800BF800A0020014801F0BFB800BF26
:10246000C80A0020014800F0B5B900BF080A0020E2
:10247000014803F089BF00BFC40B0020014803F0EE
:1024800083BF00BF100C0020014803F03DBD00BF1A
:10249000600B00204FF4804001F0DAB910B50C4C0D
:1024A0000C4B0D492268591A2AB11044884207D8AA
:1024B0002060104610BD094A226010448842F7D9B6
:1024C00011F0F4FA0C234FF0FF320360104610BDF8
:1024D00084CB00200000012000040000F8D100207F
:1024E000034AD2F8883043F47003C2F8883070474A
:1024F00000ED00E0DFF834D0FFF7F2FF0C480D49A3
:102500000D4A002302E0D458C4500433C4188C424E
:10251000F9D30A4A0A4C002301E013600432A242B4
:10252000FBD311F0DBFAFEF7F3FFFEE7000001201A
:10253000000000205807002078EB01085807002011
:10254000F8D10020FEE7000038B50F4B1B780BB91F
:10255000012038BD0D494FF47A720546B2FBF3F302
:102560000868B0FBF3F000F055FE04460028EFD1F8
:102570000F2DEDD8024629464FF0FF3000F0FEFD4A
:10258000034B20461D6038BD1800002014000020B9
:102590001C00002010B5032000F0DEFD0020FFF736
:1025A000D3FF10B10124204610BD0446FFF72AFDD9
:1025B000204610BD034A044B11681B780B4413607E
:1025C000704700BF88CB002018000020014B18681E
:1025D000704700BF88CB002038B50446FFF7F6FFF0
:1025E000631C054602D0044B1B781C44FFF7EEFF2A
:1025F000431BA342FAD338BD1800002030B583B086
:1026000000230193002800F0B180456D0446002DA1
:1026100000F08880226893689B0005D5936823F0BA
:10262000204323F03F0393609368DD0019D45D4B92
:102630005D481B6891689B09A0FB030321F01041D2
:102640009B0921F03F0101335B0041F08051916013
:102650000193019B2BB1019B013B0193019B002B3B
:10266000F9D19368D8004FD4636D43F010036365CC
:10267000A36D01200343A365936813F0040F636DFA
:1026800049D1D90647D4636D23F4817343F0020323
:1026900063659368DB070AD4444B9B68DD0706D467
:1026A000434965688B6823F47C132B438B60E56892
:1026B000636B94F820102B43A5682B43657E01299A
:1026C00043EA453343EA01434BD0A16A21B1E56AAD
:1026D00001F4707129430B43D568364929400B43F7
:1026E000D3609368590723D593682369012B40D0A1
:1026F000136B23F00F031363636D23F0030343F0A5
:102700000103636503B030BD936813F0040F4FF00D
:102710000000636DB5D0636D012043F01003636565
:1027200003B030BDFFF786FCA56584F8505071E713
:1027300093681B07D9D4D16894F83030257E21F4F2
:1027400080415B0021F0020143EA85330B43D360F3
:1027500094F83830012B14D0136923F0010313616E
:10276000C3E7616A013943EA4143AEE7012003B0A0
:1027700030BD116BE36921F00F01013B0B43136383
:10278000BAE71169E36B256C21F4FF6121F00401C4
:102790002B430B43616C0B43A16C0B4343F00103D0
:1027A0001361A2E714000020632D3E0500000450D1
:1027B0000003045007C0F0FF704700BF704700BF20
:1027C00008B5806AFFF7FAFF08BD00BF704700BF79
:1027D000704700BF036870B51D685E68A9070446AE
:1027E00001D5B2077DD469075BD5720759D5626DF3
:1027F000D20603D4626D42F400726265DA6812F4A4
:10280000406F18D1DA68900415D41A68110712D5F0
:102810009A68520700F1C9805A6822F00C025A6087
:10282000636D23F480736365636DD80403D4636DB3
:1028300043F0010363652046FFF7BEFF23680C22C7
:102840001A60A90633D5B20631D5626DD20603D41B
:10285000626D42F400526265DA6C12F0C00F62D110
:10286000DA6812F4406F00F09A80DA6891015CD463
:102870001968480659D5910257D49A68120700F191
:102880009D805A6822F060025A60636D23F4805381
:102890006365636DDB0548D4636D43F001036365D5
:1028A00043E02807CDD53107A1D4A906CBD46806CB
:1028B00014D4280601D531064AD4EA0501D5F0051D
:1028C00051D4A90501D5B20536D4E80601D5F106E3
:1028D00015D46D0501D5700551D470BD7106E8D5CC
:1028E000B3E7436DD80603D4636D43F400636365B7
:1028F000204600F02FFC236802221A6073E7626B07
:1029000012B1DA68D2070BD5636D43F48063636557
:10291000A36D43F00203A3652046FFF759FF236828
:1029200010221A60D5E7DA68DB68204600F00AFC5E
:10293000236860221A60BCE7636D43F480236365FB
:10294000204600F005FC23684FF400721A60BCE7D3
:10295000636D43F4803363652046FFF737FF2368D8
:1029600080221A60A9E7636D43F400336365204653
:1029700000F0ECFB23684FF480721A60A1E7626DEF
:1029800042F480426265A26D4FF4806142F0080219
:10299000A26520461960BDE8704000F0D5BBDA683A
:1029A0000B4991437FF464AFBFE7636D43F01003BD
:1029B0006365A36D43F00103A3653CE7636D43F0DA
:1029C00010036365A36D43F00103A365ADE700BF8A
:1029D00000200002836A5A6D12F0500F10B55A6D34
:1029E0001DD1196842F400725A650A6812F0080F86
:1029F000CA681BD012F4406F0DD1CA6894040AD47F
:102A00005A6D22F480725A655A6DD10403D45A6DFE
:102A100042F001025A651846FFF7CEFE10BDD206FD
:102A20000AD4DB6CBDE810405B6B18479007E7D514
:102A30001846FFF7C1FEF1E71846FFF7C9FE10BDC3
:102A4000806A08B5436D43F040034365836D43F0EE
:102A500004038365FFF7BCFE08BD00BFF0B590F826
:102A6000502083B00346012A4FF00000019000F08F
:102A70002E811C68012083F85000A26812F0040225
:102A80005AD14868052840F2978082094FF01F0EFE
:102A900000F01F000EFA00FE02F00C026FEA0E06B4
:102AA0000D6804F1300EC5F3846C5EF802500CFA28
:102AB00000F0F44605EA060E40EA0E004CF802006B
:102AC000A268560746D5A2680868A268D5070646D8
:102AD00013D4CF68B34AD4F8B05007F0180C22FAD8
:102AE0000CF2C0F3120C024025EA0C052A43C4F88C
:102AF000B020AD4A974200F09980AC4A164227D0E8
:102B0000AB4AAC4990688E4200F0E0751DD0AA49EE
:102B10008E4200F0DF80A9498E4219D110F4800066
:102B200016D1A7498C4213D1916821F0E071294355
:102B300041F48001916003E05A6D42F020025A6531
:102B4000002283F8502003B0F0BD010240F1FA806A
:102B50000020F5E7A268120766D408688A68C60DE7
:102B600006F0040604F11405C0F3045002FA00F75D
:102B70004FF0070C72590CFA00F022EA00023A43B7
:102B800072510E69E268042E1ED004F16007C2F390
:102B9000C102500057F826C00A688A4D02F0F84278
:102BA0000CEA050515434A6982402A4342F0004277
:102BB00047F82620086888E70238032800F2A48135
:102BC000DFE800F0999EA3A80868226E226EC0F389
:102BD0001205C2F38462002D40F0FA80C0F38465D0
:102BE000AA4200F04A81626E666E04F16002C6F38A
:102BF000846604F16407AE4200F0658196689668C9
:102C000002F10807C6F38466AE4200F04A81D66836
:102C1000D66802F10C07C6F3846295427FF455AF83
:102C20003A6822F000423A6008684EE7BCF1000FB3
:102C300078D090FAA0F2002A00F0FB80B2FA82F27B
:102C4000013202F01F02092A40F2F38090FAA0F24A
:102C5000002A00F04A81B2FA82F20132920602F0B2
:102C6000F84290FAA0F5002D00F04481B5FA85F500
:102C7000013505F01F05012606FA05F5154390FA02
:102C8000A0F0002800F03481B0FA80F0421C02F07D
:102C90001F006FF01D06032212FB0062120542F0B6
:102CA00000722A43D60D886806F0040604F1140564
:102CB000C2F3045200FA02F74FF0070C70590CFAF5
:102CC00002F220EA02023A4372510E6815E702202E
:102CD00003B0F0BD10F080707FF43AAFA1F1F7417E
:102CE0008C427FF435AF916821F0E071294341F0C7
:102CF0008071916024E70C2048606FF4F836CFE6CD
:102D0000122048606FF4F806CAE6182048606FF099
:102D1000F856C5E64FF480724A6000206FF01F0637
:102D20000422BDE6800E013000F01F06092E2BD8CC
:102D300085060122B24005F0F845154306EB460230
:102D40001205AEE71E498C427FF402AF91681E481F
:102D500021F0E071294341F40001916002681B49B0
:102D60009209A1FB02129209013202EB4202920087
:102D70000192019A002A3FF4EBAE019A013A0192C6
:102D8000019A002AF9D1E3E606EB460285061E3ACF
:102D9000012005F0F845120500FA06F642F000722F
:102DA00035437EE7FFFF070000007F4000000880FA
:102DB00000030450000052C7000084CB01000080D3
:102DC0000000045000F0FF0314000020632D3E05B6
:102DD00090FAA0F51DB1B5FA85F5AA424DD0626E04
:102DE000666E04F16002C6F3846604F1640790FA2B
:102DF000A0F51DB1B5FA85F5AE4264D09568966828
:102E000002F10807C6F3846690FAA0F51DB1B5FA81
:102E100085F5AE4245D0D568D56802F10C07C5F3FB
:102E2000846290FAA0F5002D3FF44FAEB5FA85F517
:102E3000F3E690FAA0F2002A63D0B2FA82F20132ED
:102E4000920602F0F84290FAA0F5002D57D0B5FA9C
:102E500085F5013505F01F05012606FA05F5154330
:102E600090FAA0F0002847D0B0FA80F0013000F0CE
:102E70001F0000EB4000020513E7206E224620F001
:102E8000004042F8600F606E0868666EC0F312057D
:102E900004F16407C6F38466002DA8D1C0F38465ED
:102EA000A9E6386820F000403860D068086802F170
:102EB0000C07D268C0F31205C2F38462002DB0D1B2
:102EC000C0F38465A9E6386820F000403860906857
:102ED00008689668C0F3120502F10807C6F3846615
:102EE000002D91D1C0F384658EE64FF08062B8E684
:102EF000084AD6E60225C1E64FF44012D1E6022583
:102F0000ADE74FF080629EE7062048606FF4F866F8
:102F1000C6E500BF000050FE03689A68D20701D5DD
:102F2000002070479968184A114270B5064608D0CB
:102F3000736D43F010037365B36D01200343B365F4
:102F400070BD9A68114D2A4042F001029A60FFF765
:102F50003DFB336804461A68D00713D49A68D1073A
:102F600004D49A682A4042F001029A60FFF72EFBCF
:102F7000031B022B3368EED91A68D207D8D51A681A
:102F8000D007EBD5002070BD3F000080C0FFFF7F61
:102F9000F8B503689D6815F0040541D190F85030EC
:102FA000012B04463CD0012380F850300F461646D2
:102FB000FFF7B2FF002835D1636DE06C216823F480
:102FC000706323F0010343F480736365636D13F44E
:102FD00080531CBFA36D23F00603A365134BC3628C
:102FE000134B03631C25134B43630D60002584F8CA
:102FF00050504D6845F010054D60CD6845F0010515
:1030000033463A46CD60403100F07CFA226893683E
:1030100023F0004323F03F0343F004039360F8BD23
:103020000220F8BD84F85050F8BD00BFD529000833
:10303000C1270008412A000838B503689A68950737
:1030400002D59B68002038BD9A68D4072BD59A68B2
:1030500002F00D02012A044608D0636D43F010030C
:103060006365A36D01200343A36538BD9A6822F010
:10307000004222F03F02032142F002029A601960EE
:10308000FFF7A4FA23689B68D90705460BD5FFF71D
:103090009DFA401B0228236802D99A68D207DCD423
:1030A0009B68DB07F3D4002038BD00BF70B590F8F3
:1030B000502082B00023012A019340D0012380F8E0
:1030C000503004460D46FFF7B7FFE8B9626D266839
:1030D00022F4885222F0020242F002026265B368D2
:1030E00023F0404305F0804123F03F030B4343F0BE
:1030F0000043B360B368002B0FDB636D23F0030361
:1031000043F00103636503E0636D43F010036365FF
:10311000002384F8503002B070BD019B013301934D
:10312000019BB3F5912FE5D3636D23F012030022C9
:1031300043F01003636584F850200120EBE7022080
:1031400002B070BD704700BF704700BF704700BF3E
:10315000704700BF704700BF0749CA6803024FF6B7
:10316000FF0003F4E0630240134343F0BF6343F402
:103170000033CB60704700BF00ED00E01C4BDB6804
:10318000C3F3022300B5C3F1070EBEF1040F03F130
:10319000040C28BF4FF0040EBCF1060F1BD9033BF3
:1031A0004FF0FF3C0CFA03FC22EA0C024FF0FF3C0C
:1031B0000CFA0EFC21EA0C019940002841EA0201B8
:1031C0000CDB00F16040090100F56140C9B280F8F4
:1031D00000135DF804FB00221346E7E7054B00F0FF
:1031E0000F0009010344C9B219765DF804FB00BF62
:1031F00000ED00E0FCEC00E0002808DB044A410997
:10320000012300F01F0003FA00F042F8210070478C
:1032100000E100E00138B0F1807F10D210B44FF02F
:10322000E023084C58614FF0F00C84F823C00022D2
:10323000072110469A615DF8044B1961704701201F
:10324000704700BF00ED00E088B110B50379044677
:1032500003F0FF023BB1002302210122217123610F
:103260002271184610BD4271FEF75EFFF3E70120A0
:10327000704700BF4379012B27D00268022310B4A6
:103280000371146801F0100C012303FA0CF32343BB
:103290001360136879B903F03C03042B03D153681E
:1032A00043F00103536000230122027143715DF872
:1032B000044B1846704703F47013B3F5802FF2D116
:1032C000536843F002035360EDE70220704700BFEC
:1032D00010B483B0006800240194019051B90199A1
:1032E00008310A440192019A0020136003B05DF88E
:1032F000044B7047019914310A440192F3E700BF6F
:10330000F8B54379012B064608687CD00123737118
:1033100004284FF002030C461546337138D031684B
:1033200002F010022369012B08D18D6B63691F27FE
:103330009740934025EA07052B438B63D4E9023578
:103340002B43034307256068CC6B954024EA0504B2
:1033500093402343CB630B684FF48044944023EAAB
:1033600004030B600B6840F6FC749440904023EA21
:10337000040303430B600B68C02000FA02F2002430
:1033800023EA020201230A60337174712046F8BDFA
:10339000FFF71CF907462DB114E0FFF717F9C31B1F
:1033A000012B32D833685B6B1B04F6D40120FFF786
:1033B00013F93168A3690B640EE0FFF707F9C31B2B
:1033C000012B22D833685B6B002BF6DB0120FFF763
:1033D00003F93168A3694B6405F010028B6CE06956
:1033E00040F2FF359540904023EA050303438B6488
:1033F000CB6C206AFF259540904023EA05030343E8
:10340000CB6420688EE70220F8BD3369032243F0C5
:103410000803336132711046F8BD00BF002850D058
:10342000F0B4324B04689C4242D9314A314B324DA0
:103430002244A3FB023212099200022380F82530B5
:10344000D0E9026307692168056433433B43476958
:1034500042643B4387693B43C7693B43076A21F4A6
:10346000FF4121F070013B430B43B6F5804F2360D1
:1034700014D0224B9D4226D0D3F8A81402F01C028F
:103480000F24944021EA0401C3F8A8144168D3F83A
:10349000A84401FA02F22243C3F8A824002301221F
:1034A000C36380F8243080F82520F0BC18467047AC
:1034B000134A104B114D2244A3FB02321209920011
:1034C000BBE701207047D5F8A81002F01C020F24BA
:1034D000944021EA0401C5F8A8104368D5F8A81063
:1034E00093400B43C5F8A830D8E700BF070402405B
:1034F000F8FBFDBFCDCCCCCC000402400000024064
:10350000F8FFFDBF70B490F82440012C3DD0012499
:1035100080F8244090F82540012C5FFA84FC05D007
:10352000002380F8243070BC02207047022580F808
:10353000255004680025C5632668456C26F0010601
:10354000266005F01C05066C0CFA05F575606360D5
:103550008368102B036B0BBFA260A160E160E26087
:1035600053B1236843F00E032360236843F0010343
:103570000020236070BC7047236823F0040323609D
:10358000236843F00A032360EFE7022070BC704712
:1035900090F82520022A03D00422C263012070473C
:1035A0000168426C10B50C6824F00E040C600C68C5
:1035B00024F001040C6002F01C02046C012101FAE9
:1035C00002F26260826B80F82510002480F82440AB
:1035D00012B19047204610BD104610BD70B4436C28
:1035E000066C056831682C6803F01C0304229A40BD
:1035F0000A420ED014F0040F0BD02B689B0603D4A4
:103600002B6823F004032B60036B7260CBB170BC9A
:10361000184702229A400A4215D014F0020F12D025
:103620002B68990606D42B6823F00A032B6001232C
:1036300080F82530C36A7260002180F82410002BC6
:10364000E5D170BC704708229A400A42F9D022079F
:10365000F7D52A68416B22F00E022A60012202FA95
:1036600003F300247360C26380F8244080F82520AF
:103670000029E6D070BC08472DE9F04F0C6885B0F2
:10368000002C00F0BF804FF0000C624E00916346AA
:103690004FF0010B63E0032A40F0AE8002FA0CF217
:1036A0006FEA020E076807EA0E0E42EA0E0215F4F0
:1036B000403F02604DD0584F3A6E42F001023A66E8
:1036C0003A6E02F001020392039A23F0030202F120
:1036D000804202F5803203F00307D2F808E0BF0011
:1036E0000F2101FA07F8B0F1904F2EEA080E0CD026
:1036F0004A49884200F08980494988420CBF02212A
:10370000072101FA07F74EEA070EC2F808E0B2688F
:103710006FEA0A0EEF0254BF0EEA02024AEA020200
:10372000B260F768A90254BF0EEA07074AEA070722
:10373000F7607768AA0354BF0EEA07074AEA07074B
:1037400077603268E90354BF0EEA02024AEA0202D5
:103750003260013334FA03F20CF1020C52D00BFA4E
:1037600003F818EA040AF4D000994D6805F0030242
:10377000571E012F8FD8D0F80890CF68032101FA87
:103780000CFE29EA0E0907FA0CF747EA09078760D9
:10379000476827EA0808C5F300179F4047EA08076B
:1037A0006FEA0E0E4760C768009907EA0E088F6837
:1037B00007FA0CF747EA0807022AC76002FA0CF278
:1037C0007FF470AF4FEAD30900EB890903F00708D3
:1037D000D9F82010019100990F694FEA88080F214C
:1037E00007FA08F701FA08F8019921EA080847EAF8
:1037F0000807C9F8207055E7032101FA0CFE6FEAAB
:103800000E0ED0E705B0BDE8F08F0BFA07F74EEAD1
:10381000070E7AE70004014000100240000400484F
:10382000000800480369194214BF012000207047B6
:103830000AB1816170478162704700BF436901EA44
:10384000030221EA030141EA02418161704700BF9E
:10385000044A5169014200D1704708B55061FEF732
:103860005BFB08BD000401402DE9F04782460E468F
:1038700017464FF02008DAF800309D6915F004056E
:1038800040F0C6809A6912F0100251D01022DA611D
:10389000B946741C9A6951D1900600F1B080002D90
:1038A00040F0B0809C69A106FCD5C3F81C800D20B7
:1038B00007244FF0050C04220125996911F4807F3B
:1038C00027D04FF480724E05DA6126D48D0579D465
:1038D00060469A69950744BF00229A629A69D407A4
:1038E00003D49A6942F001029A615A685C4C224002
:1038F0005A60DAF84430002103432022CAF84430E9
:103900008AF840108AF841208AF842100120BDE868
:10391000F087480551D542F008004FF480628C05CD
:10392000DA61D6D540F002004FF40072DA61D0E7D8
:10393000092003244FF0010C1546BEE792065ED421
:10394000002D5FD1FEF742FEA0EB09008642DAF8B7
:10395000003001D3002E9CD158689AF84220996912
:103960000C04D2B20FD541040DD4202A0BD05A68D2
:1039700042F480425A60FEF729FEDAF800308146B0
:1039800001E0DAF800309C6914F0200481D1FEF7E0
:103990001DFEA0EB09001928F3D9DAF844308AF8A3
:1039A000404043F02003CAF8443001258AF84180A2
:1039B000DAF800308AF84240E5E7890504D542F09C
:1039C0000200B1E72046AFE7002D46D19A69920682
:1039D00021D4FEF7FBFDC01BB04202D8002E7FF4BD
:1039E0004AAFDAF84430202213430021CAF84430A9
:1039F0008AF840108AF841200120BDE8F087002DA8
:103A00003FF453AF0D2007244FF0050C042254E778
:103A10000020BDE8F0879A69510703D5BAF828203D
:103A2000002AF5D19A6912F010021CBF102104225D
:103A30004FF0200418BFD961CAF84420DC615A68ED
:103A400007490A4000215A608AF841408AF840102C
:103A50008AF842100120BDE8F087104639E700BF20
:103A600000E800FE2DE9F04782460E4617464FF06B
:103A70002008DAF800309D6915F0020540F0C78093
:103A80009A6912F0100251D01022DA61B946741C02
:103A90009A6951D1900600F1B180002D40F0B180BB
:103AA0009C69A106FCD5C3F81C800D2007244FF0AB
:103AB000050C04220125996911F4807F27D04FF469
:103AC00080724E05DA6126D48D0579D460469A69F4
:103AD000940744BF00229A629A69D10703D49A6975
:103AE00042F001029A615A684B4C22405A60DAF85F
:103AF0004430002103432022CAF844308AF84010A1
:103B00008AF8412001208AF84210BDE8F087480574
:103B100051D542F008004FF480628C05DA61D6D5A9
:103B200040F002004FF40072DA61D0E7092003246C
:103B30004FF0010C1546BEE792065FD4002D60D110
:103B4000FEF744FDA0EB09008642DAF8003001D30D
:103B5000002E9CD158689AF8422099690C04D2B280
:103B60000FD541040DD4202A0BD05A6842F480426C
:103B70005A60FEF72BFDDAF80030814601E0DAF8F2
:103B800000309C6914F0200481D1FEF71FFDA0EBEA
:103B900009001928F3D9DAF84420DAF800308AF855
:103BA000404042F02002CAF8442001258AF84180B2
:103BB0008AF84240E5E7890504D542F00200B1E702
:103BC0002046AFE735BB721C3FF455AFFEF7FEFC55
:103BD000C01BB04202D8002E7FF44BAFDAF844305D
:103BE000002243F020032021CAF844308AF8402004
:103BF0008AF8411001208AF8422086E7002D3FF420
:103C000052AF0D2007244FF0050C042253E700208B
:103C1000BDE8F08710465AE700E800FE2DE9F047BE
:103C200082460E4617464FF02008DAF800309D69AC
:103C300015F0200540F0C5809A6912F0100251D0AD
:103C40001022DA61B946741C9A6951D1900600F1CC
:103C5000AF80002D40F0AF809C69A106FCD5C3F871
:103C60001C800D2007244FF0050C042201259969C2
:103C700011F4807F27D04FF480724E05DA6126D48C
:103C80008D0579D460469A69910744BF00229A62F3
:103C90009A69D20703D49A6942F001029A615A687C
:103CA0004A4C22405A60DAF8443000210343202273
:103CB000CAF844308AF840108AF841208AF8421045
:103CC0000120BDE8F087480551D542F008004FF4C7
:103CD00080628C05DA61D6D540F002004FF40072A4
:103CE000DA61D0E7092003244FF0010C1546BEE746
:103CF00092065DD4002D5ED1FEF768FCA0EB0900B2
:103D00008642DAF8003001D3002E9CD158689AF828
:103D1000422099690C04D2B20FD541040DD4202A57
:103D20000BD05A6842F480425A60FEF74FFCDAF832
:103D30000030814601E0DAF800309C6914F020047C
:103D400081D1FEF743FCA0EB09001928F3D9DAF87A
:103D500044308AF8404043F02003CAF8443001253B
:103D60008AF84180DAF800308AF84240E5E78805B1
:103D700004D542F00200B1E72046AFE725BBFEF7CD
:103D800025FCC01BB04202D8002E7FF44EAFDAF8FB
:103D90004430002243F020032021CAF844308AF83E
:103DA00040208AF841108AF842200120BDE8F087BF
:103DB000002D3FF454AF0D2007244FF0050C0422D2
:103DC00055E70020BDE8F08710465CE700E800FEFC
:103DD00000284FD010B590F84130044603F0FF02A0
:103DE000002B42D02368242284F84120196862689D
:103DF00021F0010122F0706219601A619A68E1688D
:103E000022F4004201299A60A2682AD042F40442B6
:103E100002299A6004BF4FF400625A60596822690F
:103E200041F0007141F4004159606169D8680A436A
:103E3000A16920F4004042EA0122E169D860206AC9
:103E4000DA6001431960196841F00101196000222C
:103E50002023626484F84130226384F842201046B3
:103E600010BD42F400429A60D8E780F84020FEF787
:103E700097F9B7E7012070472DE9F84F1E4690F8F3
:103E80004130DDF82880202B40F08D8090F84030C4
:103E9000012B054600F08780012380F840308B46D7
:103EA0001746FEF793FB814605E0FEF78FFBA0EB7C
:103EB000090019287AD82868846914F40044F4D1D8
:103EC000212385F84130102385F842306C646E85DB
:103ED0006B8D6F629BB2FF2B6C6375D86B8DA7499E
:103EE0009BB22B85DAB243681940CBF309030B432D
:103EF00043EA024343F0007343F400534360CBF3BF
:103F0000090B6B8D9BB2002B00F0EF804FF0200A65
:103F1000866916F0020640F0D280836913F0100320
:103F200071D01023C3614F46B8F1FF3F83696FD151
:103F3000990600F1E380002E40F0E38083699A0641
:103F4000FCD5C0F81CA00D21072405270423012659
:103F5000826912F4807F47D04FF48073C3615305A8
:103F600046D4960500F19380394683699E0744BF85
:103F7000002383628369DC0703D4836943F0010370
:103F8000836142687E4B1A4042606B6C00242022A1
:103F90000B436B6485F8404085F8412085F842402A
:103FA0000120BDE8F88F0220BDE8F88F6B6C00227D
:103FB00043F0200320216B6485F8402085F84110F0
:103FC000012085F84220EFE743686C4A1A40CBF3A2
:103FD0000903134343F0FF7343F49033FF222A8510
:103FE000CBF3090B43608CE751054BD543F0080137
:103FF0004FF48063C3619305B7D541F002014FF4DC
:104000000073C361B1E70921032401271E469FE71E
:104010009B0673D4002E74D1FEF7D8FAC01B8045DE
:10402000286803D3B8F1000F7FF47EAF416895F89C
:10403000423082691204DBB20DD54C040BD4202B24
:1040400009D0436843F480434360FEF7BFFA074654
:10405000286800E02868846914F020047FF464AFC5
:10406000FEF7B4FAC01B1928F4D96B6C286885F8E0
:10407000404043F020036B64012685F841A085F899
:104080004240E8E7970504D543F00201B7E721462F
:10409000B5E7002E60D1B8F1FF3F3FF439AFFEF72E
:1040A00095FAA0EB0900804580D3B8F1000F3FF4EA
:1040B0007DAF2868866916F002063FF42EAF696A64
:1040C0002B8D11F8012B82626A8D6962013A92B2DE
:1040D0006A856A8D013B9BB292B22B8502B123B3F4
:1040E0006B8D9BB2002B7FF413AF4A4641462846A6
:1040F000FFF794FD002847D0012055E7002E3FF43C
:1041000020AF0D2107240527042321E783691B061F
:1041100011D4FEF75BFAA0EB09008045FFF446AF2F
:10412000B8F1000F3FF442AF2868B8F1FF3FEDD17E
:1041300083691A06FCD56B8D9BB2FF2B0ED94368A1
:10414000104A13404BEA030343F0FF7343F48033F8
:10415000FF222A854360C3E7194606E76B8D0949AC
:104160009BB22B85DAB243680B404BEA030343EA68
:10417000024343F000734360B2E700BF009800FCC5
:1041800000E800FE009C00FC2B68064C2021D96151
:104190005A6822405A6085F8411085F8400085F839
:1041A000420001E700E800FE2DE9F047984690F84C
:1041B0004130089E202B40F0928090F84030012B37
:1041C000044600F08C80012380F840308946174671
:1041D000FEF7FCF9054605E0FEF7F8F9401B192843
:1041E00000F28A802368986910F40040F4D12222FA
:1041F00084F84120102284F842206064A4F82A80C8
:10420000628D676292B2FF2A6063C9F3090700F208
:104210008280628D4E4892B22285D1B25A680240A5
:104220003A4342EA014242F0007242F410525A60AC
:10423000638D9BB2002B3DD0DFF81C81DFF81CA101
:104240004FF0FF0903E0638D9BB2002B32D02A466A
:1042500031462046FFF708FB002876D12268636AC2
:10426000526A1A70628D238D616A013A92B2628538
:10427000628D013B01319BB292B261622385002ABB
:10428000E1D0002BDFD1701C22682BD19369190675
:10429000FCD5638D9BB2FF2B49D95368A4F82890B5
:1042A00003EA08033B4343EA0A035360638D9BB26E
:1042B000002BCCD12A4631462046FFF7AFFC002820
:1042C00043D12368234D2021D9615A682A405A607E
:1042D00084F8411084F8400084F8420000E0022095
:1042E000BDE8F08793691B06D3D4FEF76FF9401B36
:1042F000864201D3002EC6D1636C002243F0200316
:104300002021636484F8402084F8411084F842201E
:104310000120BDE8F0875A680D490A403A4342F04F
:10432000FF7242F49232FF2121855A6080E7638D4B
:104330009BB22385D9B2536803EA080343EA0143D9
:104340003B4343F0007353607DE70120BDE8F087F5
:10435000009800FC00E800FE009C00FC0000FF014B
:104360002DE9F84F9A4690F84130BDF82CB0DDF8B1
:104370003080202B40F0A4800A9B0446002B00F0E4
:104380009980BBF1000F00F0958090F84030012B30
:1043900000F09680012380F840300F469146FEF7EA
:1043A00015F9064605E0FEF711F9801B192800F201
:1043B0008A8023689D6915F40045F4D10A9A6262E7
:1043C000212284F84120402284F842206564A4F828
:1043D0002AB05A68764965630A405FFA8AF142EA70
:1043E0000142C7F309073A4342F0807242F4005297
:1043F0005A60414632462046FFF734FB002840F021
:104400009680BAF1010F40F0868022685FFA89F346
:104410009362B8F1FF3F65D193691D06FCD5638DAA
:104420009BB2FF2B6BD8638D62489BB22385D9B2B8
:10443000536803403B4343EA014343F00073536036
:104440005C4DDFF878A14FF0FF0904E0638D9BB26B
:10445000002B00F08D80324641462046FFF702FBDC
:10446000002840F08380636A226813F8011B916280
:104470006362638D013B9BB26385238D618D013B3C
:104480009BB289B223850029E0D0002BDED1B8F1A0
:10449000FF3F51D193691906FCD5638D9BB2FF2B69
:1044A00057D95368A4F828902B403B4343EA0A03AA
:1044B0005360CBE74FF4007363640120BDE8F88FCD
:1044C0000220BDE8F88F636C002243F02003202116
:1044D000636484F8402084F8411084F8422001206D
:1044E000BDE8F88F9369180699D4FEF76FF8801B22
:1044F000804552D3B8F1000F4FD0226889E7536846
:104500002C490B403B4343F0FF7343F48033FF21BE
:104510002185536094E723684FEA19229A62414645
:1045200032462046FFF79EFA00283FF46EAF002384
:1045300084F840300120C1E793691B06ADD4FEF733
:1045400045F8801B8045BED3B8F1000FBBD0226870
:104550009DE7638D9BB22385D9B253682B403B43C3
:1045600043EA014343F0007353606FE70120A5E77E
:10457000324641462046FFF751FB0028F6D123681A
:104580000D4D2021D9615A682A405A6084F84110A3
:1045900084F8400084F8420090E7636C20210B43CC
:1045A0000022636484F8411084F84220BFE700BF12
:1045B000009800FC009C00FC00E800FE0000FF01E9
:1045C0002DE9F047984690F84130BDF824A00A9DA7
:1045D000202B40F0A680089B0446002B00F09B8017
:1045E000BAF1000F00F0978090F84030012B00F0F6
:1045F0009880012380F840300F469146FDF7E6FF92
:10460000064604E0FDF7E2FF801B192874D82368F2
:10461000986910F40040F5D1089A6262222284F869
:104620004120402284F842206064A4F82AA05A68FD
:10463000784960630A405FFA88F142EA0142C7F3B1
:1046400009073A4342F400525A602946324620464E
:10465000FFF708FA002840F0A980B8F1010F40F0F8
:10466000998022685FFA89F39362681C5CD1936930
:104670005906FCD5638D9BB2FF2B7FD8638D6548AF
:104680009BB22385D9B2536803403B4343EA0143BD
:1046900043F0007343F410535360681CDFF87C81CF
:1046A000DFF87CA14FF0FF091CD193695907FCD5B5
:1046B000636A526A1A70638D626A013B9BB26385BA
:1046C0000132238D6262628D013B9BB292B22385DF
:1046D0000AB1002B3ED0638D9BB2002B79D0681CB1
:1046E0002268E2D093695B07E2D4FDF76FFF801B7D
:1046F000854201D3002DF2D1636C002243F02003E8
:104700002021636484F8402084F8411084F842201A
:104710000120BDE8F0874FF4007363640120BDE819
:10472000F0870220BDE8F08793695B06A2D4FDF70D
:104730004DFF801B854260D3002D5ED0226894E738
:1047400093691B060CD4FDF741FF801B8542D3D330
:10475000002DD1D0681C2268F2D193691906FCD5CE
:10476000638D9BB2FF2B26D95368A4F8289003EAE7
:1047700008033B4343EA0A035360ACE75368254907
:104780000B403B4343F0FF7343F49233FF212185F9
:10479000536082E723684FEA19229A62294632461B
:1047A0002046FFF75FF900283FF45BAF002384F851
:1047B00040300120B3E7638D9BB22385D9B25368A3
:1047C00003EA08033B4343EA014343F000735360A9
:1047D00081E7324629462046FFF720FAB8B9236818
:1047E0000D4D2021D9615A682A405A6084F8411041
:1047F00084F8400084F8420091E7636C20210B4369
:104800000022636484F8411084F84220CEE701203E
:1048100085E700BF009800FC00E800FE009C00FC5B
:104820000000FF0190F84120202A23D15FFA82FC8A
:1048300090F84020012A03461CD00268242000B5CD
:1048400083F84100106820F001001060106820F427
:104850008050106010680143116011684FF0000E25
:1048600041F00101116083F841C083F840E07046D7
:104870005DF804FB0220704790F84120202A22D1E5
:1048800000B55FFA82FE90F84020012A03461CD052
:104890000268242083F84100106820F001001060B5
:1048A000106820F4706040EA0121116011684FF037
:1048B000000C41F00101116083F841E083F840C031
:1048C00060465DF804FB0220704702205DF804FB9F
:1048D000024B186800F4C060704700BF00700040D1
:1048E000B0F5007F0ED01C4A136803F4C063B3F523
:1048F000806F2DD0136823F4C06343F480630020DD
:104900001360704714490B6803F4C063B3F5007F6C
:104910001ED00B68114A124823F4C06343F400739D
:104920000B601368322202FB03F34A69A0FB030306
:104930009B0C500503F1010306D500E023B14A6941
:10494000520503F1FF33F9D4034B5B695B0501D4D6
:1049500000207047032070470070004014000020C2
:1049600083DE1B4330B5204DAB6DDB0083B00446C6
:104970001CD5FFF7ADFFB0F5007F29D0802C13D8F0
:104980002FD0A4F17004B4FA84F4640917490B68B9
:1049900023F0070323430B60086800F00700001BA7
:1049A00018BF012003B030BD0324EFE7AB6D43F027
:1049B0008053AB65AB6D03F080530193019BFFF710
:1049C00087FFAB6DB0F5007F23F08053AB65D5D189
:1049D000802C04D9A02C8CBF02240124D6E700240B
:1049E000D4E70224D2E700BF0010024000200240BA
:1049F000284A9368D26813F00C0308D00C2B38D0E7
:104A0000042B34D0082B244818BF00207047214ABB
:104A10001168090754BFD2F8942012681F4954BF87
:104A2000C2F30322C2F3031251F8220003B30C2B8A
:104A30002DD1184BDB6803F00303022B25D0164A57
:104A4000032B08BF1046134BD968DA68DB68C3F341
:104A50004163C2F30622C1F30211013302FB00F0ED
:104A600001315B00B0FBF1F0B0FBF3F070470C4894
:104A7000704702F00302012AC9D0064BDB6803F03D
:104A80000303022B4FF00000D9D10548DBE70020DB
:104A9000704700BF0010024000127A0010B80108F1
:104AA0000024F400002800F039822DE9F043994AEF
:104AB00003689568D6680446D80683B005F00C05EF
:104AC00006F003062ED5002D00F02B810C2D00F0F2
:104AD0002581A3698F4F002B00F09B813B6843F039
:104AE00001033B60FDF772FD804606E0FDF76EFDB9
:104AF000A0EB0800022800F29C813B689B07F5D5DB
:104B00003B6843F008033B603B68226A23F0F003F4
:104B100013433B607B68E26923F47F4343EA02234B
:104B20007B602368D90700F1CB80990723D5042D3A
:104B300000F05F810C2D00F05981E368754E002B69
:104B400000F09281336843F480733360FDF73EFDDB
:104B5000074605E0FDF73AFDC01B022800F2698117
:104B600033685B05F6D57368226923F0F85343EA8E
:104B7000026373602368190719D56369654E002BBA
:104B800000F02081D6F8943043F00103C6F8943049
:104B9000FDF71CFD074605E0FDF718FDC01B0228C8
:104BA00000F24781D6F894309A07F5D523685F075D
:104BB0003FD5584B9A6DD60000F154819A6D42F062
:104BC00080529A659B6D03F080530193019B0126EF
:104BD000514F3B68D80540F1A381A368012B00F039
:104BE0005581052B00F0C7814A4FD7F8902022F05D
:104BF0000102C7F89020D7F8902022F00402C7F8ED
:104C00009020002B40F04981FDF7E0FC41F288390B
:104C1000804606E0FDF7DAFCA0EB0800484500F20C
:104C20000881D7F890309B07F4D4002E40F08A8199
:104C30002368980618D5636A364E002B00F05A8117
:104C4000D6F8983043F00103C6F89830FDF7BEFC63
:104C5000074605E0FDF7BAFCC01B022800F2E98018
:104C6000D6F898309907F5D5A36A2BB3022B00F03C
:104C700090810C2D00F09680264B1A6822F08072ED
:104C80001A601A68120103D4DA6822F00302DA60AB
:104C9000204CE36823F0887323F48033E360FDF74E
:104CA00095FC054605E0FDF791FC401B022800F24B
:104CB000C08023689B01F6D4002003B0BDE8F083D8
:104CC000082D75D00C2D71D06368B3F5803F00F0CE
:104CD000B480B3F5A02F00F041810E4F3A6822F462
:104CE00080323A603A6822F480223A60002B40F029
:104CF000A980FDF76BFC804606E0FDF767FCA0EBA2
:104D00000800642800F295803B689803F5D4236876
:104D10000BE700BF0010024000700040012E7FF43E
:104D2000D8AEA74B1B68990739D4A54B206A1A68DF
:104D3000120756BFD3F894301B681B0903F0F00329
:104D4000984200F2BF809E4B1A6842F008021A6037
:104D50001A6822F0F00202431A605A68E16922F4EC
:104D60007F4242EA01225A60002D00F0F180FFF7F5
:104D70003FFE934B934A9B68C3F30313D35C924A61
:104D800003F01F0320FA03F31068904A1360FDF745
:104D9000DBFB40B92368D9077FF5C7AE90E7A3696D
:104DA000002BC2D1012003B0BDE8F083032E8BD1CC
:104DB000834A126892037FF5B8AE6268002A7FF4D6
:104DC000B4AEEFE7D6F8943023F00103C6F8943080
:104DD000FDF7FCFB074604E0FDF7F8FBC01B0228CB
:104DE00027D8D6F894309B07F6D4DFE6022E7FF45E
:104DF000A4AE734A1268520502D5E268002AD1D0E7
:104E00006F4920694A6822F0F85242EA00624A601B
:104E1000B1E63B6823F001033B60FDF7D7FB80461A
:104E20003B689807B6D5FDF7D1FBA0EB0800022838
:104E3000F6D9032003B0BDE8F083614A136843F458
:104E400080331360FDF7C2FBDFF87481074604E08E
:104E5000FDF7BCFBC01B6428EBD8D8F800309B03DF
:104E6000F6D554E70026B3E6336823F48073336045
:104E7000FDF7ACFB074604E0FDF7A8FBC01B0228CA
:104E8000D7D833685805F7D4236874E64C4AD2F86B
:104E9000903043F00103C2F89030FDF797FBDFF844
:104EA0002081074641F2883904E0FDF78FFBC01BE3
:104EB0004845BED8D8F890309A07F6D5002E3FF472
:104EC000B7AE3FE0FFF74EFD00287FF46BAF3C4BE1
:104ED0001A6842F008021A601A68216A22F0F00289
:104EE0000A431A605A68E16922F47F4242EA0122C9
:104EF0005A603CE7D6F8983023F00103C6F89830A2
:104F0000FDF764FB074604E0FDF760FBC01B0228C9
:104F10008FD8D6F898309A07F6D4A5E601207047C6
:104F20003B6843F480733B60FDF750FB80463B6871
:104F3000D9053FF552AEFDF749FBA0EB080002286A
:104F4000F5D976E71E4A936D23F0805393656FE69B
:104F5000FFF708FD00283FF40AAF23E703F1804381
:104F6000A3F53C331A6842F480221A601A6842F4AE
:104F700080321A6066E7124BD3F8902042F00402A8
:104F8000C3F89020D3F8902042F00102C3F890209B
:104F900083E70B4EE26AF36803F00301914251D0BC
:104FA0000C2D3FF4FFAE064D2B685B013FF5FAAECA
:104FB0002B6823F080732B60FDF708FB06460DE09D
:104FC00000100240F8B701081C0000201400002067
:104FD000FDF7FCFA801B02283FF62BAF2B689F01E0
:104FE000F6D4E968364BE26A206B364E0B40134329
:104FF000D4E90D1243EA012343EAC263D4E90F1254
:105000000138490843EA00130139520843EA415381
:10501000013A43EA4263EB602B6843F080732B60F4
:10502000EB6843F08073EB60FDF7D0FA044605E0CF
:10503000FDF7CCFA001B02283FF6FBAE33689D015A
:10504000F6D539E6216B03F070020139B2EB011F8E
:10505000A6D1616B03F4FE42B2EB012FA0D1A16B8C
:1050600003F07842B2EBC16F9AD1E26B520803F4BD
:10507000C001013AB1EB425F92D1226C520803F0B9
:10508000C063013AB3EB426F8AD1336898013FF5B0
:1050900013AE336843F080733360F36843F080737A
:1050A000F360FDF793FA044605E0FDF78FFA001B65
:1050B00002283FF6BEAE33689901F6D5FCE500BF85
:1050C0008C809D0100100240002800F08180454A3C
:1050D000136803F007038B422DE9F0410D460446A7
:1050E0000CD2136823F007030B431360136803F01B
:1050F00007038B4202D00120BDE8F0812368DA0764
:105100003FD4990706D53849A0688A6822F0F00292
:1051100002438A6033490A6802F00702AA4209D9A9
:105120000A6822F007022A430A600A6802F00702AE
:10513000AA42E0D15A0706D52B49E0688A6822F4D2
:10514000E06202438A601B0707D5274A21699368FA
:1051500023F4605343EAC1039360FFF749FC224AFA
:10516000224C92682249C2F303120346A25C2148F2
:1051700002F01F02D340BDE8F04100680B60FDF76C
:10518000E3B96268184B032A1B6823D0022A1CD09B
:105190002ABB9E07AFD5144EB36823F00303134315
:1051A000B360FDF713FA41F28838074604E0FDF7D3
:1051B0000DFAC01B404510D8B368626803F00C03B9
:1051C000B3EB820FF3D123689BE79F03E3D492E70D
:1051D000012070479B01DED48DE703208CE7580542
:1051E00089D5D8E70020024000100240F8B7010836
:1051F000140000201C000020054B064A9B6806494D
:10520000C3F302230868D35C03F01F03D840704740
:105210000010024008B8010814000020054B064A9F
:105220009B680649C3F3C2230868D35C03F01F03DD
:10523000D84070470010024008B801081400002050
:10524000F8B5474BDA68920704460F4607D0DA688C
:10525000016802F003028A424BD00120F8BD0068C9
:10526000022857D003284ED00128F6D11B689B078F
:10527000F4D53B4AD36823F0730318436368013BBA
:1052800040EA0310D060364D2B6823F080632B601A
:10529000FDF79CF9064604E0FDF798F9831B022B05
:1052A0003CD82B681A01F7D4002F39D1D4E9021366
:1052B0002A69DB0622F0784243EA012322F4FE4207
:1052C00013432B61264D2B6843F080632B60FDF761
:1052D0007DF9064604E0FDF779F9831B022B1DD802
:1052E0002B681B01F7D52B69A269134300202B61A2
:1052F000F8BD002AB1D0DB684268C3F30213013362
:105300009342AAD1BFE71A689503B2D41B68590328
:10531000A3D5AEE71B685E059FD5AAE70320F8BDBD
:10532000012F2B690DD06269A16823F0C063520878
:1053300023F4FE43013A43EA012343EA42632B612B
:10534000C0E72269A16823F4C003520823F4FE4396
:10535000013A43EA012343EA42532B61B2E700BF1B
:10536000001002402DE9F043036813F4006783B096
:1053700004460CD0C16BB1F5000F00F0FC80B1F514
:10538000400F00F0FD80002900F0108101279E03EE
:1053900059D59A4B9A6DD50040F1E1804FF0000845
:1053A000974D2B6843F480732B60FDF70FF9064689
:1053B00005E0FDF70BF9831B022B00F2EB802B6855
:1053C000D805F6D5B7BB8D4DD5F8903013F44073A2
:1053D00027D0226D9A4225D0D5F89010D5F890307C
:1053E00043F48033C5F89030D5F8903023F48033FF
:1053F000C5F8903021F44073C907C5F8903040F1EA
:10540000FA80FDF7E3F841F28839064605E0FDF73A
:10541000DDF8801B484500F2BD80D5F890309B0731
:10542000F5D5236D7549D1F8902022F440721343CD
:10543000C1F89030B8F1000F04D0704A936D23F09A
:10544000805393652368DE0708D56C49206AD1F83C
:10545000882022F003020243C1F888209D0708D566
:105460006649606AD1F8882022F00C020243C1F834
:105470008820980608D56149A06AD1F8882022F4CE
:1054800040620243C1F88820990508D55B49606BEA
:10549000D1F8882022F440220243C1F888205A051E
:1054A00008D55649A06BD1F8882022F44012024357
:1054B000C1F888205E0608D55049E06AD1F88820F6
:1054C00022F440520243C1F88820DD0508D54B493B
:1054D000206BD1F8882022F440320243C1F88820A2
:1054E00098040ED54549206CD1F8882022F04062FE
:1054F0000243B0F1006FC1F888204DD0B0F1806F49
:1055000064D059030ED53D49606CD1F8882022F053
:1055100040620243B0F1006FC1F8882041D0B0F181
:10552000806F5CD05A040BD53448A16CD0F8882029
:1055300022F040520A43B1F1805FC0F888203CD08D
:105540001B0408D52D4AE16CD2F8883023F0804343
:105550000B43C2F88830384603B0BDE8F0839A6D3B
:1055600042F080529A659B6D03F080530193019B3A
:105570004FF0010814E72148C26842F48032C2604B
:105580001E48D0F8882022F440021143C0F8881049
:105590000027FCE603274DE7CA6842F48012CA6080
:1055A000AFE7CA6842F48012CA60BBE70430FFF775
:1055B00047FE0746E0B12368E9E60221201DFFF718
:1055C0003FFE23680028BBD00746B9E70121201D14
:1055D000FFF736FE2368002893D0074691E70121A4
:1055E000201DFFF72DFE236800289BD0074699E772
:1055F000E16B2368C4E7134614E700BF00100240C4
:10560000007000402DE9F04182B0002314460D46A1
:105610008DF803300646FCF7D9FF2C44271AFCF717
:10562000D5FF324B34681B6803EB8303C3EBC30322
:105630001B0D07FB03F3804601932246691C936808
:1056400010D113F4C06F09D0237BDBB28DF8033087
:105650009DF80330936813F4C06FF5D1002002B0B9
:10566000BDE8F08113F4C06FF8D0237BDBB28DF876
:1056700003309DF80330FCF7A9FFA0EB0800B84207
:1056800009D2019B3268002B019B03F1FF3308BF55
:1056900000270193D2E7D6E900315A68B1F5827F3D
:1056A00022F0E0025A6014D0B26AB2F5005F07D06F
:1056B0000122002386F85D2086F85C300320CEE7C7
:1056C0001A6822F400521A601A6842F400521A60F2
:1056D000EEE7B268B2F5004F02D0B2F5806FE3D1C9
:1056E0001A6822F040021A60DEE700BF14000020B2
:1056F0002DE9F04F85B000238DF8073001EB02094A
:105700000E4617460546FCF761FFDFF82081A9EB3E
:10571000000AFCF75BFFD8F8003003EB8303C3EB10
:10572000C3031B0D0AFB03F383460293701C2C6812
:1057300020D1A36813F4C05FFBD1FCF747FFA9EBAE
:105740000009FCF743FFD8F80030C3F3CB3309FB63
:1057500003F380460393711C2C681FD1A3681A06BB
:10576000FCD43A4631462846FFF74CFF48BB05B00B
:10577000BDE8F08FA36813F4C05FDED0FCF726FF0E
:10578000A0EB0B00504522D2029A029B002A03F1A3
:10579000FF3308BF4FF0000A0293C7E7A3681B0658
:1057A000DFD5FCF713FFA0EB080048450FD2039AA2
:1057B000039B002A03F1FF3308BF4FF00009039356
:1057C000C9E72B6E43F0200303202B66CFE7D5E912
:1057D00000315A68B1F5827F22F0E0025A6019D098
:1057E000AA6AB2F5005F07D11A6822F400521A6063
:1057F0001A6842F400521A60012385F85D302B6E5E
:10580000002243F02003032085F85C202B6605B0BE
:10581000BDE8F08FAA68B2F5004F02D0B2F5806FF4
:10582000DED11A6822F040021A60D9E71400002085
:10583000002874D02DE9F0410446406A002855D074
:105840000023C4E9043394F85D300022A26203F01F
:10585000FF02002B56D02168E268022384F85D30F5
:105860000D68B2F5E06F25F040050D6044D9B2F542
:10587000706F56D1A36A4FF0000C03F40055A36873
:10588000A669276A02F4706E626803F4044302F4A6
:1058900082721A43236903F002031A43636903F017
:1058A00001031A43636B03F0080343EA0E0EE36936
:1058B00003F0380806F40073134307F0800743EA47
:1058C00008033B432B430B60330C03F0040300F04D
:1058D00010004EEA0303034343EA0C034B6000202D
:1058E0000123206684F85D30BDE8F0816368B3F57C
:1058F000827FA8D0E061A6E70BD04FF4805C002542
:10590000A562BCE7204684F85C20FCF791FC606A45
:10591000A1E7A36A4FF4805C03F40055AFE70120D0
:1059200070474FF0000CEAE72DE9F041044690F88B
:105930005C00012882B078D01D46012384F85C30D9
:1059400088461746FCF742FE94F85D30012B064668
:10595000D8B209D002200122002384F85D2084F807
:105960005C3002B0BDE8F081B8F1000FF3D0002F39
:10597000F1D0A268C4F8388000230321B2F5004FAB
:1059800084F85D10C4E9133323662364A4F844301B
:10599000E787A787A4F84630236870D01A685206B4
:1059A000184603D41A6842F040021A60E268B2F561
:1059B000E06F62683DD9002A00F09E80012F00F060
:1059C0009B80E28F92B2D2B1002D00F0DA80691C88
:1059D00040F089809A68920740F1A680A26B32F865
:1059E000021BD960B4F83EC0A2630CF1FF3C1FFA61
:1059F0008CFCA4F83EC0E28F92B2002AEAD1324673
:105A000029462046FFF774FE08B120232366A368C9
:105A100033B922680193D368019393680193019B82
:105A2000206E003818BF012095E7022002B0BDE8C3
:105A3000F081002A6AD0012F68D0E38F9BB2002B3F
:105A4000DDD0002D00F0B2806F1C11D032E0E38F6A
:105A50009BB2012B71D9A16B31F8023BD360E38F6C
:105A6000A163023B9BB2E387E18F89B20029C6D0D4
:105A7000226893689807EAD4FCF7A8FDF4E71A684F
:105A800022F040021A601A6842F480421A6085E7E8
:105A9000E28F92B2012AA26B40F29E8032F8021B82
:105AA000D960E38FA263023B9BB2E387E38F9BB293
:105AB000002BA4D023689A689107E9D4FCF786FDEF
:105AC000801B8542F2D8032045E7A26B32F8023BE7
:105AD000C360E38FA263013B9BB2E387E38F9BB27A
